{
  "_format": "hh-sol-artifact-1",
  "contractName": "TSO",
  "sourceName": "contracts/TSO.sol",
  "abi": [
    {
      "inputs": [
        {
          "internalType": "address",
          "name": "_aggregatorAddress",
          "type": "address"
        }
      ],
      "stateMutability": "nonpayable",
      "type": "constructor"
    },
    {
      "anonymous": false,
      "inputs": [
        {
          "indexed": false,
          "internalType": "address",
          "name": "batteryOwner",
          "type": "address"
        },
        {
          "indexed": false,
          "internalType": "uint256",
          "name": "amount",
          "type": "uint256"
        },
        {
          "indexed": false,
          "internalType": "uint256",
          "name": "price",
          "type": "uint256"
        }
      ],
      "name": "BidPlaced",
      "type": "event"
    },
    {
      "anonymous": false,
      "inputs": [
        {
          "indexed": true,
          "internalType": "address",
          "name": "batteryOwner",
          "type": "address"
        },
        {
          "indexed": false,
          "internalType": "uint256",
          "name": "amount",
          "type": "uint256"
        },
        {
          "indexed": false,
          "internalType": "uint256",
          "name": "price",
          "type": "uint256"
        }
      ],
      "name": "BidSelected",
      "type": "event"
    },
    {
      "anonymous": false,
      "inputs": [],
      "name": "MarketClosed",
      "type": "event"
    },
    {
      "anonymous": false,
      "inputs": [
        {
          "indexed": false,
          "internalType": "uint256",
          "name": "requiredEnergy",
          "type": "uint256"
        },
        {
          "indexed": false,
          "internalType": "bool",
          "name": "isPositiveReserve",
          "type": "bool"
        }
      ],
      "name": "MarketOpened",
      "type": "event"
    },
    {
      "anonymous": false,
      "inputs": [
        {
          "indexed": true,
          "internalType": "address",
          "name": "aggregatorOwner",
          "type": "address"
        },
        {
          "indexed": false,
          "internalType": "uint256",
          "name": "commission",
          "type": "uint256"
        }
      ],
      "name": "PaymentToAggregatorOwnerRecorded",
      "type": "event"
    },
    {
      "anonymous": false,
      "inputs": [
        {
          "indexed": true,
          "internalType": "address",
          "name": "batteryOwner",
          "type": "address"
        },
        {
          "indexed": false,
          "internalType": "uint256",
          "name": "payment",
          "type": "uint256"
        }
      ],
      "name": "PaymentToBatteryOwnerRecorded",
      "type": "event"
    },
    {
      "inputs": [
        {
          "internalType": "uint256",
          "name": "_bidId",
          "type": "uint256"
        }
      ],
      "name": "acceptBid",
      "outputs": [],
      "stateMutability": "payable",
      "type": "function"
    },
    {
      "inputs": [],
      "name": "aggregator",
      "outputs": [
        {
          "internalType": "contract Aggregator",
          "name": "",
          "type": "address"
        }
      ],
      "stateMutability": "view",
      "type": "function"
    },
    {
      "inputs": [],
      "name": "bidCount",
      "outputs": [
        {
          "internalType": "uint256",
          "name": "",
          "type": "uint256"
        }
      ],
      "stateMutability": "view",
      "type": "function"
    },
    {
      "inputs": [
        {
          "internalType": "uint256",
          "name": "",
          "type": "uint256"
        }
      ],
      "name": "bids",
      "outputs": [
        {
          "internalType": "address",
          "name": "batteryOwner",
          "type": "address"
        },
        {
          "internalType": "uint256",
          "name": "amount",
          "type": "uint256"
        },
        {
          "internalType": "uint256",
          "name": "price",
          "type": "uint256"
        },
        {
          "internalType": "bool",
          "name": "isSelected",
          "type": "bool"
        }
      ],
      "stateMutability": "view",
      "type": "function"
    },
    {
      "inputs": [],
      "name": "closeMarket",
      "outputs": [],
      "stateMutability": "nonpayable",
      "type": "function"
    },
    {
      "inputs": [],
      "name": "isPositiveReserve",
      "outputs": [
        {
          "internalType": "bool",
          "name": "",
          "type": "bool"
        }
      ],
      "stateMutability": "view",
      "type": "function"
    },
    {
      "inputs": [],
      "name": "marketOpen",
      "outputs": [
        {
          "internalType": "bool",
          "name": "",
          "type": "bool"
        }
      ],
      "stateMutability": "view",
      "type": "function"
    },
    {
      "inputs": [
        {
          "internalType": "uint256",
          "name": "_requiredEnergy",
          "type": "uint256"
        },
        {
          "internalType": "bool",
          "name": "_isPositiveReserve",
          "type": "bool"
        }
      ],
      "name": "openMarket",
      "outputs": [],
      "stateMutability": "nonpayable",
      "type": "function"
    },
    {
      "inputs": [
        {
          "internalType": "address",
          "name": "_batteryOwner",
          "type": "address"
        },
        {
          "internalType": "uint256",
          "name": "_amountInKWh",
          "type": "uint256"
        },
        {
          "internalType": "uint256",
          "name": "_pricePerMWh",
          "type": "uint256"
        }
      ],
      "name": "placeBid",
      "outputs": [],
      "stateMutability": "nonpayable",
      "type": "function"
    },
    {
      "inputs": [
        {
          "internalType": "uint256",
          "name": "_bidId",
          "type": "uint256"
        }
      ],
      "name": "processPayment",
      "outputs": [],
      "stateMutability": "payable",
      "type": "function"
    },
    {
      "inputs": [],
      "name": "requiredEnergy",
      "outputs": [
        {
          "internalType": "uint256",
          "name": "",
          "type": "uint256"
        }
      ],
      "stateMutability": "view",
      "type": "function"
    },
    {
      "inputs": [],
      "name": "totalSelectedEnergy",
      "outputs": [
        {
          "internalType": "uint256",
          "name": "",
          "type": "uint256"
        }
      ],
      "stateMutability": "view",
      "type": "function"
    },
    {
      "inputs": [],
      "name": "tsoAdmin",
      "outputs": [
        {
          "internalType": "address",
          "name": "",
          "type": "address"
        }
      ],
      "stateMutability": "view",
      "type": "function"
    }
  ],
  "bytecode": "0x60806040523480156200001157600080fd5b5060405162001db038038062001db083398181016040528101906200003791906200012a565b33600360016101000a81548173ffffffffffffffffffffffffffffffffffffffff021916908373ffffffffffffffffffffffffffffffffffffffff16021790555080600660006101000a81548173ffffffffffffffffffffffffffffffffffffffff021916908373ffffffffffffffffffffffffffffffffffffffff160217905550506200015c565b600080fd5b600073ffffffffffffffffffffffffffffffffffffffff82169050919050565b6000620000f282620000c5565b9050919050565b6200010481620000e5565b81146200011057600080fd5b50565b6000815190506200012481620000f9565b92915050565b600060208284031215620001435762000142620000c0565b5b6000620001538482850162000113565b91505092915050565b611c44806200016c6000396000f3fe6080604052600436106100c25760003560e01c80634423c5f11161007f578063c511ed5e11610059578063c511ed5e1461023f578063c66bc04614610256578063d6e0cd1714610281578063e2a886bd146102aa576100c2565b80634423c5f1146101a957806366bf4570146101e9578063b40a562714610214576100c2565b80630270ada4146100c757806304717aca146100f257806304eb435f1461011b578063245a7bfc146101465780632b1fd58a146101715780633a2f84851461018d575b600080fd5b3480156100d357600080fd5b506100dc6102d5565b6040516100e99190611197565b60405180910390f35b3480156100fe57600080fd5b5061011960048036038101906101149190611219565b6102fb565b005b34801561012757600080fd5b50610130610728565b60405161013d9190611287565b60405180910390f35b34801561015257600080fd5b5061015b61073b565b6040516101689190611301565b60405180910390f35b61018b6004803603810190610186919061131c565b610761565b005b6101a760048036038101906101a2919061131c565b610973565b005b3480156101b557600080fd5b506101d060048036038101906101cb919061131c565b610e61565b6040516101e09493929190611358565b60405180910390f35b3480156101f557600080fd5b506101fe610ebe565b60405161020b919061139d565b60405180910390f35b34801561022057600080fd5b50610229610ec4565b604051610236919061139d565b60405180910390f35b34801561024b57600080fd5b50610254610eca565b005b34801561026257600080fd5b5061026b610f62565b6040516102789190611287565b60405180910390f35b34801561028d57600080fd5b506102a860048036038101906102a391906113e4565b610f75565b005b3480156102b657600080fd5b506102bf611064565b6040516102cc919061139d565b60405180910390f35b600360019054906101000a900473ffffffffffffffffffffffffffffffffffffffff1681565b600160009054906101000a900460ff1661034a576040517f08c379a000000000000000000000000000000000000000000000000000000000815260040161034190611481565b60405180910390fd5b6000600660009054906101000a900473ffffffffffffffffffffffffffffffffffffffff1673ffffffffffffffffffffffffffffffffffffffff16637edaff94856040518263ffffffff1660e01b81526004016103a79190611197565b60206040518083038186803b1580156103bf57600080fd5b505afa1580156103d3573d6000803e3d6000fd5b505050506040513d601f19601f820116820180604052508101906103f791906114b6565b90506000600660009054906101000a900473ffffffffffffffffffffffffffffffffffffffff1673ffffffffffffffffffffffffffffffffffffffff16633e395962866040518263ffffffff1660e01b81526004016104569190611197565b60206040518083038186803b15801561046e57600080fd5b505afa158015610482573d6000803e3d6000fd5b505050506040513d601f19601f820116820180604052508101906104a691906114b6565b9050600360009054906101000a900460ff161561051c5780826104c99190611512565b6064856104d69190611512565b1115610517576040517f08c379a000000000000000000000000000000000000000000000000000000000815260040161050e906115de565b60405180910390fd5b610560565b6064821061055f576040517f08c379a00000000000000000000000000000000000000000000000000000000081526004016105569061164a565b60405180910390fd5b5b600083116105a3576040517f08c379a000000000000000000000000000000000000000000000000000000000815260040161059a906116b6565b60405180910390fd5b60006103e885856105b49190611512565b6105be9190611705565b905060405180608001604052808773ffffffffffffffffffffffffffffffffffffffff16815260200186815260200182815260200160001515815250600080600454815260200190815260200160002060008201518160000160006101000a81548173ffffffffffffffffffffffffffffffffffffffff021916908373ffffffffffffffffffffffffffffffffffffffff160217905550602082015181600101556040820151816002015560608201518160030160006101000a81548160ff0219169083151502179055509050507fdf8644c0a4c21ed214ce69f395675b3a5fcd1039083daea5058898de40ea31498686836040516106bf93929190611736565b60405180910390a1600460008154809291906106da9061176d565b91905055506107206040518060400160405280600b81526020017f42696420636f756e743a2000000000000000000000000000000000000000000081525060045461106a565b505050505050565b600360009054906101000a900460ff1681565b600660009054906101000a900473ffffffffffffffffffffffffffffffffffffffff1681565b600160009054906101000a900460ff16156107b1576040517f08c379a00000000000000000000000000000000000000000000000000000000081526004016107a890611802565b60405180910390fd5b6000600554905060025481106107fc576040517f08c379a00000000000000000000000000000000000000000000000000000000081526004016107f39061186e565b60405180910390fd5b600160008084815260200190815260200160002060030160006101000a81548160ff021916908315150217905550600080838152602001908152602001600020600101548161084b919061188e565b90508060058190555060008083815260200190815260200160002060000160009054906101000a900473ffffffffffffffffffffffffffffffffffffffff1673ffffffffffffffffffffffffffffffffffffffff167f66edc0473c18faf132f9a6974a29aac1cfc61b42a142271b34c926bcc7ae59fe60008085815260200190815260200160002060010154600080868152602001908152602001600020600201546040516108fb9291906118e4565b60405180910390a23073ffffffffffffffffffffffffffffffffffffffff16633a2f848534846040518363ffffffff1660e01b815260040161093d919061139d565b6000604051808303818588803b15801561095657600080fd5b505af115801561096a573d6000803e3d6000fd5b50505050505050565b60008082815260200190815260200160002060030160009054906101000a900460ff166109d5576040517f08c379a00000000000000000000000000000000000000000000000000000000081526004016109cc90611959565b60405180910390fd5b60006064600660009054906101000a900473ffffffffffffffffffffffffffffffffffffffff1673ffffffffffffffffffffffffffffffffffffffff16635ea1d6f86040518163ffffffff1660e01b815260040160206040518083038186803b158015610a4157600080fd5b505afa158015610a55573d6000803e3d6000fd5b505050506040513d601f19601f82011682018060405250810190610a7991906114b6565b34610a849190611512565b610a8e9190611705565b905060008134610a9e9190611979565b905060008084815260200190815260200160002060000160009054906101000a900473ffffffffffffffffffffffffffffffffffffffff1673ffffffffffffffffffffffffffffffffffffffff166108fc829081150290604051600060405180830381858888f19350505050158015610b1b573d6000803e3d6000fd5b5060008084815260200190815260200160002060000160009054906101000a900473ffffffffffffffffffffffffffffffffffffffff1673ffffffffffffffffffffffffffffffffffffffff167f05622d675ae17b6095d9de6bd6448ed94a9e4ef429dd071bccc722048aac18cf82604051610b97919061139d565b60405180910390a2600660009054906101000a900473ffffffffffffffffffffffffffffffffffffffff1673ffffffffffffffffffffffffffffffffffffffff16638da5cb5b6040518163ffffffff1660e01b815260040160206040518083038186803b158015610c0757600080fd5b505afa158015610c1b573d6000803e3d6000fd5b505050506040513d601f19601f82011682018060405250810190610c3f91906119c2565b73ffffffffffffffffffffffffffffffffffffffff166108fc839081150290604051600060405180830381858888f19350505050158015610c84573d6000803e3d6000fd5b50600660009054906101000a900473ffffffffffffffffffffffffffffffffffffffff1673ffffffffffffffffffffffffffffffffffffffff16638da5cb5b6040518163ffffffff1660e01b815260040160206040518083038186803b158015610ced57600080fd5b505afa158015610d01573d6000803e3d6000fd5b505050506040513d601f19601f82011682018060405250810190610d2591906119c2565b73ffffffffffffffffffffffffffffffffffffffff167fb6566daf73f0ad3b232c916b0188d8e5a84b2a34ffe61283799015ea02cff7ec83604051610d6a919061139d565b60405180910390a2600660009054906101000a900473ffffffffffffffffffffffffffffffffffffffff1673ffffffffffffffffffffffffffffffffffffffff16639e9b522c60008086815260200190815260200160002060000160009054906101000a900473ffffffffffffffffffffffffffffffffffffffff1660008087815260200190815260200160002060010154600360009054906101000a900460ff166040518463ffffffff1660e01b8152600401610e2a939291906119ef565b600060405180830381600087803b158015610e4457600080fd5b505af1158015610e58573d6000803e3d6000fd5b50505050505050565b60006020528060005260406000206000915090508060000160009054906101000a900473ffffffffffffffffffffffffffffffffffffffff16908060010154908060020154908060030160009054906101000a900460ff16905084565b60055481565b60045481565b600160009054906101000a900460ff16610f19576040517f08c379a0000000000000000000000000000000000000000000000000000000008152600401610f1090611a72565b60405180910390fd5b6000600160006101000a81548160ff0219169083151502179055507f0b5f6bf058282d5cc003efc735b9ee453bbd7f9bef4c6db6300d095f3eefac2860405160405180910390a1565b600160009054906101000a900460ff1681565b60001515600160009054906101000a900460ff16151514610fcb576040517f08c379a0000000000000000000000000000000000000000000000000000000008152600401610fc290611ade565b60405180910390fd5b8160028190555080600360006101000a81548160ff02191690831515021790555060018060006101000a81548160ff021916908315150217905550600060058190555060006004819055507faa156aa8eb148a0ccce210026c57e10f7da7b4d62043a69e58bfc0f4d246dfb8600254600360009054906101000a900460ff16604051611058929190611afe565b60405180910390a15050565b60025481565b6111028282604051602401611080929190611baf565b6040516020818303038152906040527fb60e72cc000000000000000000000000000000000000000000000000000000007bffffffffffffffffffffffffffffffffffffffffffffffffffffffff19166020820180517bffffffffffffffffffffffffffffffffffffffffffffffffffffffff8381831617835250505050611106565b5050565b61111d81611115611120611141565b63ffffffff16565b50565b60006a636f6e736f6c652e6c6f679050600080835160208501845afa505050565b61114c819050919050565b611154611bdf565b565b600073ffffffffffffffffffffffffffffffffffffffff82169050919050565b600061118182611156565b9050919050565b61119181611176565b82525050565b60006020820190506111ac6000830184611188565b92915050565b600080fd5b6111c081611176565b81146111cb57600080fd5b50565b6000813590506111dd816111b7565b92915050565b6000819050919050565b6111f6816111e3565b811461120157600080fd5b50565b600081359050611213816111ed565b92915050565b600080600060608486031215611232576112316111b2565b5b6000611240868287016111ce565b935050602061125186828701611204565b925050604061126286828701611204565b9150509250925092565b60008115159050919050565b6112818161126c565b82525050565b600060208201905061129c6000830184611278565b92915050565b6000819050919050565b60006112c76112c26112bd84611156565b6112a2565b611156565b9050919050565b60006112d9826112ac565b9050919050565b60006112eb826112ce565b9050919050565b6112fb816112e0565b82525050565b600060208201905061131660008301846112f2565b92915050565b600060208284031215611332576113316111b2565b5b600061134084828501611204565b91505092915050565b611352816111e3565b82525050565b600060808201905061136d6000830187611188565b61137a6020830186611349565b6113876040830185611349565b6113946060830184611278565b95945050505050565b60006020820190506113b26000830184611349565b92915050565b6113c18161126c565b81146113cc57600080fd5b50565b6000813590506113de816113b8565b92915050565b600080604083850312156113fb576113fa6111b2565b5b600061140985828601611204565b925050602061141a858286016113cf565b9150509250929050565b600082825260208201905092915050565b7f4d61726b6574206973206e6f74206f70656e0000000000000000000000000000600082015250565b600061146b601283611424565b915061147682611435565b602082019050919050565b6000602082019050818103600083015261149a8161145e565b9050919050565b6000815190506114b0816111ed565b92915050565b6000602082840312156114cc576114cb6111b2565b5b60006114da848285016114a1565b91505092915050565b7f4e487b7100000000000000000000000000000000000000000000000000000000600052601160045260246000fd5b600061151d826111e3565b9150611528836111e3565b9250817fffffffffffffffffffffffffffffffffffffffffffffffffffffffffffffffff0483118215151615611561576115606114e3565b5b828202905092915050565b7f416d6f756e7420706c616365642065786365656473206261747465727920636160008201527f706163697479206f7220536f4300000000000000000000000000000000000000602082015250565b60006115c8602d83611424565b91506115d38261156c565b604082019050919050565b600060208201905081810360008301526115f7816115bb565b9050919050565b7f426174746572792069732066756c6c0000000000000000000000000000000000600082015250565b6000611634600f83611424565b915061163f826115fe565b602082019050919050565b6000602082019050818103600083015261166381611627565b9050919050565b7f5072696365206d7573742062652067726561746572207468616e203000000000600082015250565b60006116a0601c83611424565b91506116ab8261166a565b602082019050919050565b600060208201905081810360008301526116cf81611693565b9050919050565b7f4e487b7100000000000000000000000000000000000000000000000000000000600052601260045260246000fd5b6000611710826111e3565b915061171b836111e3565b92508261172b5761172a6116d6565b5b828204905092915050565b600060608201905061174b6000830186611188565b6117586020830185611349565b6117656040830184611349565b949350505050565b6000611778826111e3565b91507fffffffffffffffffffffffffffffffffffffffffffffffffffffffffffffffff8214156117ab576117aa6114e3565b5b600182019050919050565b7f4d61726b6574206973207374696c6c206f70656e000000000000000000000000600082015250565b60006117ec601483611424565b91506117f7826117b6565b602082019050919050565b6000602082019050818103600083015261181b816117df565b9050919050565b7f526571756972656420656e6572677920616c72656164792073656c6563746564600082015250565b6000611858602083611424565b915061186382611822565b602082019050919050565b600060208201905081810360008301526118878161184b565b9050919050565b6000611899826111e3565b91506118a4836111e3565b9250827fffffffffffffffffffffffffffffffffffffffffffffffffffffffffffffffff038211156118d9576118d86114e3565b5b828201905092915050565b60006040820190506118f96000830185611349565b6119066020830184611349565b9392505050565b7f426964206e6f7420616363657074656400000000000000000000000000000000600082015250565b6000611943601083611424565b915061194e8261190d565b602082019050919050565b6000602082019050818103600083015261197281611936565b9050919050565b6000611984826111e3565b915061198f836111e3565b9250828210156119a2576119a16114e3565b5b828203905092915050565b6000815190506119bc816111b7565b92915050565b6000602082840312156119d8576119d76111b2565b5b60006119e6848285016119ad565b91505092915050565b6000606082019050611a046000830186611188565b611a116020830185611349565b611a1e6040830184611278565b949350505050565b7f4d61726b657420697320616c726561647920636c6f7365640000000000000000600082015250565b6000611a5c601883611424565b9150611a6782611a26565b602082019050919050565b60006020820190508181036000830152611a8b81611a4f565b9050919050565b7f4d61726b657420697320616c7265616479206f70656e00000000000000000000600082015250565b6000611ac8601683611424565b9150611ad382611a92565b602082019050919050565b60006020820190508181036000830152611af781611abb565b9050919050565b6000604082019050611b136000830185611349565b611b206020830184611278565b9392505050565b600081519050919050565b60005b83811015611b50578082015181840152602081019050611b35565b83811115611b5f576000848401525b50505050565b6000601f19601f8301169050919050565b6000611b8182611b27565b611b8b8185611424565b9350611b9b818560208601611b32565b611ba481611b65565b840191505092915050565b60006040820190508181036000830152611bc98185611b76565b9050611bd86020830184611349565b9392505050565b7f4e487b7100000000000000000000000000000000000000000000000000000000600052605160045260246000fdfea2646970667358221220e8013ca90ef125a87e1fa18ae801678b354170389616e37d0fa569f398404e5064736f6c63430008090033",
  "linkReferences": {},
  "deployedLinkReferences": {}
}