{
  "_format": "hh-sol-artifact-1",
  "contractName": "TSO",
  "sourceName": "contracts/TSO.sol",
  "abi": [
    {
      "inputs": [
        {
          "internalType": "address",
          "name": "_aggregatorAddress",
          "type": "address"
        }
      ],
      "stateMutability": "nonpayable",
      "type": "constructor"
    },
    {
      "anonymous": false,
      "inputs": [
        {
          "indexed": false,
          "internalType": "address",
          "name": "batteryOwner",
          "type": "address"
        },
        {
          "indexed": false,
          "internalType": "uint256",
          "name": "amount",
          "type": "uint256"
        },
        {
          "indexed": false,
          "internalType": "uint256",
          "name": "price",
          "type": "uint256"
        }
      ],
      "name": "BidPlaced",
      "type": "event"
    },
    {
      "anonymous": false,
      "inputs": [
        {
          "indexed": true,
          "internalType": "address",
          "name": "batteryOwner",
          "type": "address"
        },
        {
          "indexed": false,
          "internalType": "uint256",
          "name": "amount",
          "type": "uint256"
        },
        {
          "indexed": false,
          "internalType": "uint256",
          "name": "price",
          "type": "uint256"
        }
      ],
      "name": "BidSelected",
      "type": "event"
    },
    {
      "anonymous": false,
      "inputs": [],
      "name": "MarketClosed",
      "type": "event"
    },
    {
      "anonymous": false,
      "inputs": [
        {
          "indexed": false,
          "internalType": "uint256",
          "name": "requiredEnergy",
          "type": "uint256"
        },
        {
          "indexed": false,
          "internalType": "bool",
          "name": "isPositiveReserve",
          "type": "bool"
        }
      ],
      "name": "MarketOpened",
      "type": "event"
    },
    {
      "anonymous": false,
      "inputs": [
        {
          "indexed": true,
          "internalType": "address",
          "name": "aggregatorOwner",
          "type": "address"
        },
        {
          "indexed": false,
          "internalType": "uint256",
          "name": "commission",
          "type": "uint256"
        }
      ],
      "name": "PaymentToAggregatorOwnerRecorded",
      "type": "event"
    },
    {
      "anonymous": false,
      "inputs": [
        {
          "indexed": true,
          "internalType": "address",
          "name": "batteryOwner",
          "type": "address"
        },
        {
          "indexed": false,
          "internalType": "uint256",
          "name": "payment",
          "type": "uint256"
        }
      ],
      "name": "PaymentToBatteryOwnerRecorded",
      "type": "event"
    },
    {
      "inputs": [
        {
          "internalType": "uint256",
          "name": "_bidId",
          "type": "uint256"
        }
      ],
      "name": "acceptBid",
      "outputs": [],
      "stateMutability": "payable",
      "type": "function"
    },
    {
      "inputs": [],
      "name": "aggregator",
      "outputs": [
        {
          "internalType": "contract Aggregator",
          "name": "",
          "type": "address"
        }
      ],
      "stateMutability": "view",
      "type": "function"
    },
    {
      "inputs": [],
      "name": "bidCount",
      "outputs": [
        {
          "internalType": "uint256",
          "name": "",
          "type": "uint256"
        }
      ],
      "stateMutability": "view",
      "type": "function"
    },
    {
      "inputs": [
        {
          "internalType": "uint256",
          "name": "",
          "type": "uint256"
        }
      ],
      "name": "bids",
      "outputs": [
        {
          "internalType": "address",
          "name": "batteryOwner",
          "type": "address"
        },
        {
          "internalType": "uint256",
          "name": "amount",
          "type": "uint256"
        },
        {
          "internalType": "uint256",
          "name": "price",
          "type": "uint256"
        },
        {
          "internalType": "bool",
          "name": "isSelected",
          "type": "bool"
        }
      ],
      "stateMutability": "view",
      "type": "function"
    },
    {
      "inputs": [],
      "name": "closeMarket",
      "outputs": [],
      "stateMutability": "nonpayable",
      "type": "function"
    },
    {
      "inputs": [],
      "name": "isPositiveReserve",
      "outputs": [
        {
          "internalType": "bool",
          "name": "",
          "type": "bool"
        }
      ],
      "stateMutability": "view",
      "type": "function"
    },
    {
      "inputs": [],
      "name": "marketOpen",
      "outputs": [
        {
          "internalType": "bool",
          "name": "",
          "type": "bool"
        }
      ],
      "stateMutability": "view",
      "type": "function"
    },
    {
      "inputs": [
        {
          "internalType": "uint256",
          "name": "_requiredEnergy",
          "type": "uint256"
        },
        {
          "internalType": "bool",
          "name": "_isPositiveReserve",
          "type": "bool"
        }
      ],
      "name": "openMarket",
      "outputs": [],
      "stateMutability": "nonpayable",
      "type": "function"
    },
    {
      "inputs": [
        {
          "internalType": "address",
          "name": "_batteryOwner",
          "type": "address"
        },
        {
          "internalType": "uint256",
          "name": "_amountInKWh",
          "type": "uint256"
        },
        {
          "internalType": "uint256",
          "name": "_pricePerMWh",
          "type": "uint256"
        }
      ],
      "name": "placeBid",
      "outputs": [],
      "stateMutability": "nonpayable",
      "type": "function"
    },
    {
      "inputs": [
        {
          "internalType": "uint256",
          "name": "_bidId",
          "type": "uint256"
        }
      ],
      "name": "processPayment",
      "outputs": [],
      "stateMutability": "payable",
      "type": "function"
    },
    {
      "inputs": [],
      "name": "requiredEnergy",
      "outputs": [
        {
          "internalType": "uint256",
          "name": "",
          "type": "uint256"
        }
      ],
      "stateMutability": "view",
      "type": "function"
    },
    {
      "inputs": [],
      "name": "totalSelectedEnergy",
      "outputs": [
        {
          "internalType": "uint256",
          "name": "",
          "type": "uint256"
        }
      ],
      "stateMutability": "view",
      "type": "function"
    },
    {
      "inputs": [],
      "name": "tsoAdmin",
      "outputs": [
        {
          "internalType": "address",
          "name": "",
          "type": "address"
        }
      ],
      "stateMutability": "view",
      "type": "function"
    }
  ],
  "bytecode": "0x60806040523480156200001157600080fd5b5060405162001dbf38038062001dbf83398181016040528101906200003791906200012a565b33600360016101000a81548173ffffffffffffffffffffffffffffffffffffffff021916908373ffffffffffffffffffffffffffffffffffffffff16021790555080600660006101000a81548173ffffffffffffffffffffffffffffffffffffffff021916908373ffffffffffffffffffffffffffffffffffffffff160217905550506200015c565b600080fd5b600073ffffffffffffffffffffffffffffffffffffffff82169050919050565b6000620000f282620000c5565b9050919050565b6200010481620000e5565b81146200011057600080fd5b50565b6000815190506200012481620000f9565b92915050565b600060208284031215620001435762000142620000c0565b5b6000620001538482850162000113565b91505092915050565b611c53806200016c6000396000f3fe6080604052600436106100c25760003560e01c80634423c5f11161007f578063c511ed5e11610059578063c511ed5e1461023f578063c66bc04614610256578063d6e0cd1714610281578063e2a886bd146102aa576100c2565b80634423c5f1146101a957806366bf4570146101e9578063b40a562714610214576100c2565b80630270ada4146100c757806304717aca146100f257806304eb435f1461011b578063245a7bfc146101465780632b1fd58a146101715780633a2f84851461018d575b600080fd5b3480156100d357600080fd5b506100dc6102d5565b6040516100e9919061118d565b60405180910390f35b3480156100fe57600080fd5b506101196004803603810190610114919061120f565b6102fb565b005b34801561012757600080fd5b506101306106e7565b60405161013d919061127d565b60405180910390f35b34801561015257600080fd5b5061015b6106fa565b60405161016891906112f7565b60405180910390f35b61018b60048036038101906101869190611312565b610720565b005b6101a760048036038101906101a29190611312565b61091f565b005b3480156101b557600080fd5b506101d060048036038101906101cb9190611312565b610e6a565b6040516101e0949392919061134e565b60405180910390f35b3480156101f557600080fd5b506101fe610ec7565b60405161020b9190611393565b60405180910390f35b34801561022057600080fd5b50610229610ecd565b6040516102369190611393565b60405180910390f35b34801561024b57600080fd5b50610254610ed3565b005b34801561026257600080fd5b5061026b610f6b565b604051610278919061127d565b60405180910390f35b34801561028d57600080fd5b506102a860048036038101906102a391906113da565b610f7e565b005b3480156102b657600080fd5b506102bf61105d565b6040516102cc9190611393565b60405180910390f35b600360019054906101000a900473ffffffffffffffffffffffffffffffffffffffff1681565b600160009054906101000a900460ff1661034a576040517f08c379a000000000000000000000000000000000000000000000000000000000815260040161034190611477565b60405180910390fd5b6000600660009054906101000a900473ffffffffffffffffffffffffffffffffffffffff1673ffffffffffffffffffffffffffffffffffffffff16637edaff94856040518263ffffffff1660e01b81526004016103a7919061118d565b60206040518083038186803b1580156103bf57600080fd5b505afa1580156103d3573d6000803e3d6000fd5b505050506040513d601f19601f820116820180604052508101906103f791906114ac565b90506000600660009054906101000a900473ffffffffffffffffffffffffffffffffffffffff1673ffffffffffffffffffffffffffffffffffffffff16633e395962866040518263ffffffff1660e01b8152600401610456919061118d565b60206040518083038186803b15801561046e57600080fd5b505afa158015610482573d6000803e3d6000fd5b505050506040513d601f19601f820116820180604052508101906104a691906114ac565b9050600360009054906101000a900460ff161561051c5780826104c99190611508565b6064856104d69190611508565b1115610517576040517f08c379a000000000000000000000000000000000000000000000000000000000815260040161050e906115d4565b60405180910390fd5b610560565b6064821061055f576040517f08c379a000000000000000000000000000000000000000000000000000000000815260040161055690611640565b60405180910390fd5b5b600083116105a3576040517f08c379a000000000000000000000000000000000000000000000000000000000815260040161059a906116ac565b60405180910390fd5b6000846103e8856105b491906116fb565b6105be9190611508565b905060405180608001604052808773ffffffffffffffffffffffffffffffffffffffff16815260200186815260200182815260200160001515815250600080600454815260200190815260200160002060008201518160000160006101000a81548173ffffffffffffffffffffffffffffffffffffffff021916908373ffffffffffffffffffffffffffffffffffffffff160217905550602082015181600101556040820151816002015560608201518160030160006101000a81548160ff0219169083151502179055509050507fdf8644c0a4c21ed214ce69f395675b3a5fcd1039083daea5058898de40ea31498686836040516106bf9392919061172c565b60405180910390a1600460008154809291906106da90611763565b9190505550505050505050565b600360009054906101000a900460ff1681565b600660009054906101000a900473ffffffffffffffffffffffffffffffffffffffff1681565b600160009054906101000a900460ff1615610770576040517f08c379a0000000000000000000000000000000000000000000000000000000008152600401610767906117f8565b60405180910390fd5b600060055490506002548110156108f957600160008084815260200190815260200160002060030160006101000a81548160ff02191690831515021790555060008083815260200190815260200160002060010154816107d09190611818565b90508060058190555060008083815260200190815260200160002060000160009054906101000a900473ffffffffffffffffffffffffffffffffffffffff1673ffffffffffffffffffffffffffffffffffffffff167f66edc0473c18faf132f9a6974a29aac1cfc61b42a142271b34c926bcc7ae59fe600080858152602001908152602001600020600101546000808681526020019081526020016000206002015460405161088092919061186e565b60405180910390a23073ffffffffffffffffffffffffffffffffffffffff16633a2f848534846040518363ffffffff1660e01b81526004016108c29190611393565b6000604051808303818588803b1580156108db57600080fd5b505af11580156108ef573d6000803e3d6000fd5b505050505061091b565b61091a604051806060016040528060278152602001611bf760279139611063565b5b5050565b60008082815260200190815260200160002060030160009054906101000a900460ff16610981576040517f08c379a0000000000000000000000000000000000000000000000000000000008152600401610978906118e3565b60405180910390fd5b60008060008381526020019081526020016000206002015490508034146109dd576040517f08c379a00000000000000000000000000000000000000000000000000000000081526004016109d49061194f565b60405180910390fd5b60006064600660009054906101000a900473ffffffffffffffffffffffffffffffffffffffff1673ffffffffffffffffffffffffffffffffffffffff16635ea1d6f86040518163ffffffff1660e01b815260040160206040518083038186803b158015610a4957600080fd5b505afa158015610a5d573d6000803e3d6000fd5b505050506040513d601f19601f82011682018060405250810190610a8191906114ac565b34610a8c9190611508565b610a9691906116fb565b905060008134610aa6919061196f565b905060008085815260200190815260200160002060000160009054906101000a900473ffffffffffffffffffffffffffffffffffffffff1673ffffffffffffffffffffffffffffffffffffffff166108fc829081150290604051600060405180830381858888f19350505050158015610b23573d6000803e3d6000fd5b5060008085815260200190815260200160002060000160009054906101000a900473ffffffffffffffffffffffffffffffffffffffff1673ffffffffffffffffffffffffffffffffffffffff167f05622d675ae17b6095d9de6bd6448ed94a9e4ef429dd071bccc722048aac18cf82604051610b9f9190611393565b60405180910390a2600660009054906101000a900473ffffffffffffffffffffffffffffffffffffffff1673ffffffffffffffffffffffffffffffffffffffff16638da5cb5b6040518163ffffffff1660e01b815260040160206040518083038186803b158015610c0f57600080fd5b505afa158015610c23573d6000803e3d6000fd5b505050506040513d601f19601f82011682018060405250810190610c4791906119b8565b73ffffffffffffffffffffffffffffffffffffffff166108fc839081150290604051600060405180830381858888f19350505050158015610c8c573d6000803e3d6000fd5b50600660009054906101000a900473ffffffffffffffffffffffffffffffffffffffff1673ffffffffffffffffffffffffffffffffffffffff16638da5cb5b6040518163ffffffff1660e01b815260040160206040518083038186803b158015610cf557600080fd5b505afa158015610d09573d6000803e3d6000fd5b505050506040513d601f19601f82011682018060405250810190610d2d91906119b8565b73ffffffffffffffffffffffffffffffffffffffff167fb6566daf73f0ad3b232c916b0188d8e5a84b2a34ffe61283799015ea02cff7ec83604051610d729190611393565b60405180910390a2600660009054906101000a900473ffffffffffffffffffffffffffffffffffffffff1673ffffffffffffffffffffffffffffffffffffffff16639e9b522c60008087815260200190815260200160002060000160009054906101000a900473ffffffffffffffffffffffffffffffffffffffff1660008088815260200190815260200160002060010154600360009054906101000a900460ff166040518463ffffffff1660e01b8152600401610e32939291906119e5565b600060405180830381600087803b158015610e4c57600080fd5b505af1158015610e60573d6000803e3d6000fd5b5050505050505050565b60006020528060005260406000206000915090508060000160009054906101000a900473ffffffffffffffffffffffffffffffffffffffff16908060010154908060020154908060030160009054906101000a900460ff16905084565b60055481565b60045481565b600160009054906101000a900460ff16610f22576040517f08c379a0000000000000000000000000000000000000000000000000000000008152600401610f1990611a68565b60405180910390fd5b6000600160006101000a81548160ff0219169083151502179055507f0b5f6bf058282d5cc003efc735b9ee453bbd7f9bef4c6db6300d095f3eefac2860405160405180910390a1565b600160009054906101000a900460ff1681565b60001515600160009054906101000a900460ff16151514610fd4576040517f08c379a0000000000000000000000000000000000000000000000000000000008152600401610fcb90611ad4565b60405180910390fd5b8160028190555080600360006101000a81548160ff02191690831515021790555060018060006101000a81548160ff0219169083151502179055507faa156aa8eb148a0ccce210026c57e10f7da7b4d62043a69e58bfc0f4d246dfb8600254600360009054906101000a900460ff16604051611051929190611af4565b60405180910390a15050565b60025481565b6110f9816040516024016110779190611ba5565b6040516020818303038152906040527f41304fac000000000000000000000000000000000000000000000000000000007bffffffffffffffffffffffffffffffffffffffffffffffffffffffff19166020820180517bffffffffffffffffffffffffffffffffffffffffffffffffffffffff83818316178352505050506110fc565b50565b6111138161110b611116611137565b63ffffffff16565b50565b60006a636f6e736f6c652e6c6f679050600080835160208501845afa505050565b611142819050919050565b61114a611bc7565b565b600073ffffffffffffffffffffffffffffffffffffffff82169050919050565b60006111778261114c565b9050919050565b6111878161116c565b82525050565b60006020820190506111a2600083018461117e565b92915050565b600080fd5b6111b68161116c565b81146111c157600080fd5b50565b6000813590506111d3816111ad565b92915050565b6000819050919050565b6111ec816111d9565b81146111f757600080fd5b50565b600081359050611209816111e3565b92915050565b600080600060608486031215611228576112276111a8565b5b6000611236868287016111c4565b9350506020611247868287016111fa565b9250506040611258868287016111fa565b9150509250925092565b60008115159050919050565b61127781611262565b82525050565b6000602082019050611292600083018461126e565b92915050565b6000819050919050565b60006112bd6112b86112b38461114c565b611298565b61114c565b9050919050565b60006112cf826112a2565b9050919050565b60006112e1826112c4565b9050919050565b6112f1816112d6565b82525050565b600060208201905061130c60008301846112e8565b92915050565b600060208284031215611328576113276111a8565b5b6000611336848285016111fa565b91505092915050565b611348816111d9565b82525050565b6000608082019050611363600083018761117e565b611370602083018661133f565b61137d604083018561133f565b61138a606083018461126e565b95945050505050565b60006020820190506113a8600083018461133f565b92915050565b6113b781611262565b81146113c257600080fd5b50565b6000813590506113d4816113ae565b92915050565b600080604083850312156113f1576113f06111a8565b5b60006113ff858286016111fa565b9250506020611410858286016113c5565b9150509250929050565b600082825260208201905092915050565b7f4d61726b6574206973206e6f74206f70656e0000000000000000000000000000600082015250565b600061146160128361141a565b915061146c8261142b565b602082019050919050565b6000602082019050818103600083015261149081611454565b9050919050565b6000815190506114a6816111e3565b92915050565b6000602082840312156114c2576114c16111a8565b5b60006114d084828501611497565b91505092915050565b7f4e487b7100000000000000000000000000000000000000000000000000000000600052601160045260246000fd5b6000611513826111d9565b915061151e836111d9565b9250817fffffffffffffffffffffffffffffffffffffffffffffffffffffffffffffffff0483118215151615611557576115566114d9565b5b828202905092915050565b7f416d6f756e7420706c616365642065786365656473206261747465727920636160008201527f706163697479206f7220536f4300000000000000000000000000000000000000602082015250565b60006115be602d8361141a565b91506115c982611562565b604082019050919050565b600060208201905081810360008301526115ed816115b1565b9050919050565b7f426174746572792069732066756c6c0000000000000000000000000000000000600082015250565b600061162a600f8361141a565b9150611635826115f4565b602082019050919050565b600060208201905081810360008301526116598161161d565b9050919050565b7f5072696365206d7573742062652067726561746572207468616e203000000000600082015250565b6000611696601c8361141a565b91506116a182611660565b602082019050919050565b600060208201905081810360008301526116c581611689565b9050919050565b7f4e487b7100000000000000000000000000000000000000000000000000000000600052601260045260246000fd5b6000611706826111d9565b9150611711836111d9565b925082611721576117206116cc565b5b828204905092915050565b6000606082019050611741600083018661117e565b61174e602083018561133f565b61175b604083018461133f565b949350505050565b600061176e826111d9565b91507fffffffffffffffffffffffffffffffffffffffffffffffffffffffffffffffff8214156117a1576117a06114d9565b5b600182019050919050565b7f4d61726b6574206973207374696c6c206f70656e000000000000000000000000600082015250565b60006117e260148361141a565b91506117ed826117ac565b602082019050919050565b60006020820190508181036000830152611811816117d5565b9050919050565b6000611823826111d9565b915061182e836111d9565b9250827fffffffffffffffffffffffffffffffffffffffffffffffffffffffffffffffff03821115611863576118626114d9565b5b828201905092915050565b6000604082019050611883600083018561133f565b611890602083018461133f565b9392505050565b7f426964206e6f7420616363657074656400000000000000000000000000000000600082015250565b60006118cd60108361141a565b91506118d882611897565b602082019050919050565b600060208201905081810360008301526118fc816118c0565b9050919050565b7f496e73756666696369656e742066756e64730000000000000000000000000000600082015250565b600061193960128361141a565b915061194482611903565b602082019050919050565b600060208201905081810360008301526119688161192c565b9050919050565b600061197a826111d9565b9150611985836111d9565b925082821015611998576119976114d9565b5b828203905092915050565b6000815190506119b2816111ad565b92915050565b6000602082840312156119ce576119cd6111a8565b5b60006119dc848285016119a3565b91505092915050565b60006060820190506119fa600083018661117e565b611a07602083018561133f565b611a14604083018461126e565b949350505050565b7f4d61726b657420697320616c726561647920636c6f7365640000000000000000600082015250565b6000611a5260188361141a565b9150611a5d82611a1c565b602082019050919050565b60006020820190508181036000830152611a8181611a45565b9050919050565b7f4d61726b657420697320616c7265616479206f70656e00000000000000000000600082015250565b6000611abe60168361141a565b9150611ac982611a88565b602082019050919050565b60006020820190508181036000830152611aed81611ab1565b9050919050565b6000604082019050611b09600083018561133f565b611b16602083018461126e565b9392505050565b600081519050919050565b60005b83811015611b46578082015181840152602081019050611b2b565b83811115611b55576000848401525b50505050565b6000601f19601f8301169050919050565b6000611b7782611b1d565b611b81818561141a565b9350611b91818560208601611b28565b611b9a81611b5b565b840191505092915050565b60006020820190508181036000830152611bbf8184611b6c565b905092915050565b7f4e487b7100000000000000000000000000000000000000000000000000000000600052605160045260246000fdfe456e657267792073656c6563746564206578636565647320726571756972656420656e65726779a2646970667358221220306310ac437029ed4d57d268a811e889c5c970da5b600e426e8a5d5fa66eceef64736f6c63430008090033",
  "linkReferences": {},
  "deployedLinkReferences": {}
}