{
  "_format": "hh-sol-artifact-1",
  "contractName": "TSO",
  "sourceName": "contracts/TSO.sol",
  "abi": [
    {
      "inputs": [
        {
          "internalType": "address",
          "name": "_tsoAdmin",
          "type": "address"
        }
      ],
      "stateMutability": "nonpayable",
      "type": "constructor"
    },
    {
      "anonymous": false,
      "inputs": [
        {
          "indexed": true,
          "internalType": "address",
          "name": "bidder",
          "type": "address"
        },
        {
          "indexed": false,
          "internalType": "address",
          "name": "batteryOwner",
          "type": "address"
        },
        {
          "indexed": false,
          "internalType": "uint256",
          "name": "amount",
          "type": "uint256"
        },
        {
          "indexed": false,
          "internalType": "uint256",
          "name": "price",
          "type": "uint256"
        }
      ],
      "name": "BidPlaced",
      "type": "event"
    },
    {
      "anonymous": false,
      "inputs": [
        {
          "indexed": true,
          "internalType": "address",
          "name": "batteryOwner",
          "type": "address"
        },
        {
          "indexed": false,
          "internalType": "uint256",
          "name": "amount",
          "type": "uint256"
        },
        {
          "indexed": false,
          "internalType": "uint256",
          "name": "price",
          "type": "uint256"
        }
      ],
      "name": "BidSelected",
      "type": "event"
    },
    {
      "anonymous": false,
      "inputs": [],
      "name": "MarketClosed",
      "type": "event"
    },
    {
      "anonymous": false,
      "inputs": [
        {
          "indexed": false,
          "internalType": "uint256",
          "name": "requiredEnergy",
          "type": "uint256"
        },
        {
          "indexed": false,
          "internalType": "bool",
          "name": "isPositiveReserve",
          "type": "bool"
        }
      ],
      "name": "MarketOpened",
      "type": "event"
    },
    {
      "anonymous": false,
      "inputs": [
        {
          "indexed": true,
          "internalType": "address",
          "name": "bidder",
          "type": "address"
        },
        {
          "indexed": false,
          "internalType": "uint256",
          "name": "commission",
          "type": "uint256"
        }
      ],
      "name": "PaymentToAggregatorOwnerRecorded",
      "type": "event"
    },
    {
      "anonymous": false,
      "inputs": [
        {
          "indexed": true,
          "internalType": "address",
          "name": "batteryOwner",
          "type": "address"
        },
        {
          "indexed": false,
          "internalType": "uint256",
          "name": "payment",
          "type": "uint256"
        }
      ],
      "name": "PaymentToBatteryOwnerRecorded",
      "type": "event"
    },
    {
      "inputs": [
        {
          "internalType": "uint256",
          "name": "_bidId",
          "type": "uint256"
        }
      ],
      "name": "acceptBid",
      "outputs": [],
      "stateMutability": "payable",
      "type": "function"
    },
    {
      "inputs": [],
      "name": "aggregatorOwner",
      "outputs": [
        {
          "internalType": "address",
          "name": "",
          "type": "address"
        }
      ],
      "stateMutability": "view",
      "type": "function"
    },
    {
      "inputs": [
        {
          "internalType": "address",
          "name": "",
          "type": "address"
        }
      ],
      "name": "aggregators",
      "outputs": [
        {
          "internalType": "address",
          "name": "",
          "type": "address"
        }
      ],
      "stateMutability": "view",
      "type": "function"
    },
    {
      "inputs": [],
      "name": "bidCount",
      "outputs": [
        {
          "internalType": "uint256",
          "name": "",
          "type": "uint256"
        }
      ],
      "stateMutability": "view",
      "type": "function"
    },
    {
      "inputs": [
        {
          "internalType": "uint256",
          "name": "",
          "type": "uint256"
        }
      ],
      "name": "bids",
      "outputs": [
        {
          "internalType": "address",
          "name": "bidder",
          "type": "address"
        },
        {
          "internalType": "address",
          "name": "batteryOwner",
          "type": "address"
        },
        {
          "internalType": "uint256",
          "name": "amount",
          "type": "uint256"
        },
        {
          "internalType": "uint256",
          "name": "price",
          "type": "uint256"
        },
        {
          "internalType": "bool",
          "name": "isSelected",
          "type": "bool"
        }
      ],
      "stateMutability": "view",
      "type": "function"
    },
    {
      "inputs": [],
      "name": "closeMarket",
      "outputs": [],
      "stateMutability": "nonpayable",
      "type": "function"
    },
    {
      "inputs": [
        {
          "internalType": "uint256",
          "name": "_index",
          "type": "uint256"
        }
      ],
      "name": "getBatteryOwner",
      "outputs": [
        {
          "internalType": "address",
          "name": "",
          "type": "address"
        }
      ],
      "stateMutability": "view",
      "type": "function"
    },
    {
      "inputs": [
        {
          "internalType": "uint256",
          "name": "_index",
          "type": "uint256"
        }
      ],
      "name": "getBidder",
      "outputs": [
        {
          "internalType": "address",
          "name": "",
          "type": "address"
        }
      ],
      "stateMutability": "view",
      "type": "function"
    },
    {
      "inputs": [],
      "name": "isPositiveReserve",
      "outputs": [
        {
          "internalType": "bool",
          "name": "",
          "type": "bool"
        }
      ],
      "stateMutability": "view",
      "type": "function"
    },
    {
      "inputs": [],
      "name": "marketOpen",
      "outputs": [
        {
          "internalType": "bool",
          "name": "",
          "type": "bool"
        }
      ],
      "stateMutability": "view",
      "type": "function"
    },
    {
      "inputs": [
        {
          "internalType": "uint256",
          "name": "_requiredEnergy",
          "type": "uint256"
        },
        {
          "internalType": "bool",
          "name": "_isPositiveReserve",
          "type": "bool"
        }
      ],
      "name": "openMarket",
      "outputs": [],
      "stateMutability": "nonpayable",
      "type": "function"
    },
    {
      "inputs": [
        {
          "internalType": "address",
          "name": "_bidder",
          "type": "address"
        },
        {
          "internalType": "address",
          "name": "_batteryOwner",
          "type": "address"
        },
        {
          "internalType": "uint256",
          "name": "_amountInKWh",
          "type": "uint256"
        },
        {
          "internalType": "uint256",
          "name": "_pricePerMWh",
          "type": "uint256"
        }
      ],
      "name": "placeBid",
      "outputs": [],
      "stateMutability": "nonpayable",
      "type": "function"
    },
    {
      "inputs": [
        {
          "internalType": "uint256",
          "name": "_bidId",
          "type": "uint256"
        }
      ],
      "name": "processPayment",
      "outputs": [],
      "stateMutability": "payable",
      "type": "function"
    },
    {
      "inputs": [],
      "name": "requiredEnergy",
      "outputs": [
        {
          "internalType": "uint256",
          "name": "",
          "type": "uint256"
        }
      ],
      "stateMutability": "view",
      "type": "function"
    },
    {
      "inputs": [
        {
          "internalType": "address",
          "name": "_owner",
          "type": "address"
        },
        {
          "internalType": "address",
          "name": "_aggregator",
          "type": "address"
        }
      ],
      "name": "setAggregator",
      "outputs": [],
      "stateMutability": "nonpayable",
      "type": "function"
    },
    {
      "inputs": [],
      "name": "totalSelectedEnergy",
      "outputs": [
        {
          "internalType": "uint256",
          "name": "",
          "type": "uint256"
        }
      ],
      "stateMutability": "view",
      "type": "function"
    },
    {
      "inputs": [],
      "name": "tsoAdmin",
      "outputs": [
        {
          "internalType": "address",
          "name": "",
          "type": "address"
        }
      ],
      "stateMutability": "view",
      "type": "function"
    }
  ],
  "bytecode": "0x60806040523480156200001157600080fd5b5060405162002b0238038062002b028339818101604052810190620000379190620000e9565b80600460016101000a81548173ffffffffffffffffffffffffffffffffffffffff021916908373ffffffffffffffffffffffffffffffffffffffff160217905550506200011b565b600080fd5b600073ffffffffffffffffffffffffffffffffffffffff82169050919050565b6000620000b18262000084565b9050919050565b620000c381620000a4565b8114620000cf57600080fd5b50565b600081519050620000e381620000b8565b92915050565b6000602082840312156200010257620001016200007f565b5b60006200011284828501620000d2565b91505092915050565b6129d7806200012b6000396000f3fe6080604052600436106100fe5760003560e01c8063865109f211610095578063c511ed5e11610064578063c511ed5e1461031f578063c66bc04614610336578063d6e0cd1714610361578063e2a886bd1461038a578063f190032b146103b5576100fe565b8063865109f21461026357806387c132ce146102a0578063ab0c7d56146102cb578063b40a5627146102f4576100fe565b80633a2f8485116100d15780633a2f8485146101b25780634423c5f1146101ce57806366bf45701461020f5780637394a7f61461023a576100fe565b80630270ada41461010357806304eb435f1461012e578063112cdab9146101595780632b1fd58a14610196575b600080fd5b34801561010f57600080fd5b506101186103f2565b6040516101259190611cf0565b60405180910390f35b34801561013a57600080fd5b50610143610418565b6040516101509190611d26565b60405180910390f35b34801561016557600080fd5b50610180600480360381019061017b9190611d72565b61042b565b60405161018d9190611cf0565b60405180910390f35b6101b060048036038101906101ab9190611dd5565b61045e565b005b6101cc60048036038101906101c79190611dd5565b6106f1565b005b3480156101da57600080fd5b506101f560048036038101906101f09190611dd5565b610efe565b604051610206959493929190611e11565b60405180910390f35b34801561021b57600080fd5b50610224610f81565b6040516102319190611e64565b60405180910390f35b34801561024657600080fd5b50610261600480360381019061025c9190611e7f565b610f87565b005b34801561026f57600080fd5b5061028a60048036038101906102859190611dd5565b611008565b6040516102979190611cf0565b60405180910390f35b3480156102ac57600080fd5b506102b5611048565b6040516102c29190611cf0565b60405180910390f35b3480156102d757600080fd5b506102f260048036038101906102ed9190611ebf565b61106e565b005b34801561030057600080fd5b50610309611742565b6040516103169190611e64565b60405180910390f35b34801561032b57600080fd5b50610334611748565b005b34801561034257600080fd5b5061034b6117e0565b6040516103589190611d26565b60405180910390f35b34801561036d57600080fd5b5061038860048036038101906103839190611f52565b6117f3565b005b34801561039657600080fd5b5061039f61190d565b6040516103ac9190611e64565b60405180910390f35b3480156103c157600080fd5b506103dc60048036038101906103d79190611dd5565b611913565b6040516103e99190611cf0565b60405180910390f35b600460019054906101000a900473ffffffffffffffffffffffffffffffffffffffff1681565b600460009054906101000a900460ff1681565b60006020528060005260406000206000915054906101000a900473ffffffffffffffffffffffffffffffffffffffff1681565b600460019054906101000a900473ffffffffffffffffffffffffffffffffffffffff1673ffffffffffffffffffffffffffffffffffffffff163373ffffffffffffffffffffffffffffffffffffffff16146104ee576040517f08c379a00000000000000000000000000000000000000000000000000000000081526004016104e590612015565b60405180910390fd5b600260009054906101000a900460ff161561053e576040517f08c379a000000000000000000000000000000000000000000000000000000000815260040161053590612081565b60405180910390fd5b600060075490506003548110156106cb57600180600084815260200190815260200160002060040160006101000a81548160ff02191690831515021790555060016000838152602001908152602001600020600201548161059f91906120d0565b9050806007819055506001600083815260200190815260200160002060010160009054906101000a900473ffffffffffffffffffffffffffffffffffffffff1673ffffffffffffffffffffffffffffffffffffffff167f66edc0473c18faf132f9a6974a29aac1cfc61b42a142271b34c926bcc7ae59fe60016000858152602001908152602001600020600201546001600086815260200190815260200160002060030154604051610652929190612126565b60405180910390a23073ffffffffffffffffffffffffffffffffffffffff16633a2f848534846040518363ffffffff1660e01b81526004016106949190611e64565b6000604051808303818588803b1580156106ad57600080fd5b505af11580156106c1573d6000803e3d6000fd5b50505050506106ed565b6106ec6040518060600160405280602f8152602001612973602f9139611953565b5b5050565b6107306040518060400160405280601e81526020017f50726f63657373696e67207061796d656e7420666f72206269642049443a0000815250826119ec565b61077e6040518060400160405280600e81526020017f4d61726b6574207374617475733a000000000000000000000000000000000000815250600260009054906101000a900460ff16611a88565b6107e06040518060400160405280600d81526020017f4269642073656c65637465643a000000000000000000000000000000000000008152506001600084815260200190815260200160002060040160009054906101000a900460ff16611a88565b6001600082815260200190815260200160002060040160009054906101000a900460ff16610843576040517f08c379a000000000000000000000000000000000000000000000000000000000815260040161083a9061219b565b60405180910390fd5b60006001600083815260200190815260200160002060030154600160008481526020019081526020016000206002015461087d91906121bb565b90506108be6040518060400160405280600d81526020017f5061796d656e742073656e743a00000000000000000000000000000000000000815250346119ec565b6108fd6040518060400160405280601181526020017f5061796d656e742072657175697265643a000000000000000000000000000000815250826119ec565b80341461093f576040517f08c379a000000000000000000000000000000000000000000000000000000000815260040161093690612261565b60405180910390fd5b60006001600084815260200190815260200160002060000160009054906101000a900473ffffffffffffffffffffffffffffffffffffffff16905060006001600085815260200190815260200160002060010160009054906101000a900473ffffffffffffffffffffffffffffffffffffffff1690506109f46040518060400160405280600f81526020017f42696464657220616464726573733a000000000000000000000000000000000081525083611b24565b610a336040518060400160405280601681526020017f42617474657279206f776e657220616464726573733a0000000000000000000081525082611b24565b60008060008373ffffffffffffffffffffffffffffffffffffffff1673ffffffffffffffffffffffffffffffffffffffff16815260200190815260200160002060009054906101000a900473ffffffffffffffffffffffffffffffffffffffff1690506000819050610ada6040518060400160405280601381526020017f41676772656761746f7220616464726573733a0000000000000000000000000081525083611b24565b600260009054906101000a900460ff1615610b2a576040517f08c379a0000000000000000000000000000000000000000000000000000000008152600401610b2190612081565b60405180910390fd5b600060648273ffffffffffffffffffffffffffffffffffffffff16635ea1d6f86040518163ffffffff1660e01b815260040160206040518083038186803b158015610b7457600080fd5b505afa158015610b88573d6000803e3d6000fd5b505050506040513d601f19601f82011682018060405250810190610bac9190612296565b34610bb791906121bb565b610bc191906122f2565b9050610c026040518060400160405280600b81526020017f436f6d6d697373696f6e3a000000000000000000000000000000000000000000815250826119ec565b610c4c6040518060400160405280601981526020017f5061796d656e7420746f2062617474657279206f776e65723a000000000000008152508234610c479190612323565b6119ec565b8373ffffffffffffffffffffffffffffffffffffffff166108fc8234610c729190612323565b9081150290604051600060405180830381858888f19350505050158015610c9d573d6000803e3d6000fd5b508373ffffffffffffffffffffffffffffffffffffffff167f05622d675ae17b6095d9de6bd6448ed94a9e4ef429dd071bccc722048aac18cf8234610ce29190612323565b604051610cef9190611e64565b60405180910390a2610d366040518060400160405280601681526020017f5061796d656e7420746f2061676772656761746f723a00000000000000000000815250826119ec565b8473ffffffffffffffffffffffffffffffffffffffff166108fc829081150290604051600060405180830381858888f19350505050158015610d7c573d6000803e3d6000fd5b508473ffffffffffffffffffffffffffffffffffffffff167fb6566daf73f0ad3b232c916b0188d8e5a84b2a34ffe61283799015ea02cff7ec82604051610dc39190611e64565b60405180910390a2610ded60405180606001604052806027815260200161294c6027913985611b24565b8173ffffffffffffffffffffffffffffffffffffffff16639e9b522c600160008a815260200190815260200160002060010160009054906101000a900473ffffffffffffffffffffffffffffffffffffffff16600160008b815260200190815260200160002060020154600460009054906101000a900460ff166040518463ffffffff1660e01b8152600401610e8593929190612357565b600060405180830381600087803b158015610e9f57600080fd5b505af1158015610eb3573d6000803e3d6000fd5b50505050610ef56040518060400160405280601d81526020017f5061796d656e742070726f63657373696e6720636f6d706c657465642e000000815250611953565b50505050505050565b60016020528060005260406000206000915090508060000160009054906101000a900473ffffffffffffffffffffffffffffffffffffffff16908060010160009054906101000a900473ffffffffffffffffffffffffffffffffffffffff16908060020154908060030154908060040160009054906101000a900460ff16905085565b60075481565b806000808473ffffffffffffffffffffffffffffffffffffffff1673ffffffffffffffffffffffffffffffffffffffff16815260200190815260200160002060006101000a81548173ffffffffffffffffffffffffffffffffffffffff021916908373ffffffffffffffffffffffffffffffffffffffff1602179055505050565b60006001600083815260200190815260200160002060000160009054906101000a900473ffffffffffffffffffffffffffffffffffffffff169050919050565b600560009054906101000a900473ffffffffffffffffffffffffffffffffffffffff1681565b600260009054906101000a900460ff166110bd576040517f08c379a00000000000000000000000000000000000000000000000000000000081526004016110b4906123da565b60405180910390fd5b8373ffffffffffffffffffffffffffffffffffffffff163373ffffffffffffffffffffffffffffffffffffffff161461112b576040517f08c379a00000000000000000000000000000000000000000000000000000000081526004016111229061246c565b60405180910390fd5b60008060008573ffffffffffffffffffffffffffffffffffffffff1673ffffffffffffffffffffffffffffffffffffffff16815260200190815260200160002060009054906101000a900473ffffffffffffffffffffffffffffffffffffffff169050600073ffffffffffffffffffffffffffffffffffffffff168173ffffffffffffffffffffffffffffffffffffffff1614156111fe576040517f08c379a00000000000000000000000000000000000000000000000000000000081526004016111f5906124fe565b60405180910390fd5b600081905060008173ffffffffffffffffffffffffffffffffffffffff16637edaff94876040518263ffffffff1660e01b815260040161123e9190611cf0565b60206040518083038186803b15801561125657600080fd5b505afa15801561126a573d6000803e3d6000fd5b505050506040513d601f19601f8201168201806040525081019061128e9190612296565b905060008273ffffffffffffffffffffffffffffffffffffffff16633e395962886040518263ffffffff1660e01b81526004016112cb9190611cf0565b60206040518083038186803b1580156112e357600080fd5b505afa1580156112f7573d6000803e3d6000fd5b505050506040513d601f19601f8201168201806040525081019061131b9190612296565b9050600460009054906101000a900460ff161561139157808261133e91906121bb565b60648761134b91906121bb565b111561138c576040517f08c379a000000000000000000000000000000000000000000000000000000000815260040161138390612590565b60405180910390fd5b6113d5565b606482106113d4576040517f08c379a00000000000000000000000000000000000000000000000000000000081526004016113cb906125fc565b60405180910390fd5b5b60008511611418576040517f08c379a000000000000000000000000000000000000000000000000000000000815260040161140f90612668565b60405180910390fd5b60006103e8878761142991906121bb565b61143391906122f2565b90506040518060a001604052808a73ffffffffffffffffffffffffffffffffffffffff1681526020018973ffffffffffffffffffffffffffffffffffffffff1681526020018881526020018281526020016000151581525060016000600654815260200190815260200160002060008201518160000160006101000a81548173ffffffffffffffffffffffffffffffffffffffff021916908373ffffffffffffffffffffffffffffffffffffffff16021790555060208201518160010160006101000a81548173ffffffffffffffffffffffffffffffffffffffff021916908373ffffffffffffffffffffffffffffffffffffffff160217905550604082015181600201556060820151816003015560808201518160040160006101000a81548160ff0219169083151502179055509050506115a46040518060400160405280600f81526020017f42696420706c616365642062793a2000000000000000000000000000000000008152508a611b24565b6115e36040518060400160405280600f81526020017f42617474657279206f776e65723a20000000000000000000000000000000000081525089611b24565b6116586040518060400160405280600c81526020017f42696420616d6f756e743a200000000000000000000000000000000000000000815250886040518060400160405280600481526020017f206b576800000000000000000000000000000000000000000000000000000000815250611bc0565b6116cd6040518060400160405280600b81526020017f4269642070726963653a20000000000000000000000000000000000000000000815250826040518060400160405280600881526020017f204555522f4b5768000000000000000000000000000000000000000000000000815250611bc0565b8873ffffffffffffffffffffffffffffffffffffffff167fdd49bbb40d47a514dddcd458e9718364143bc24a0cca58439ee6f4f45e4ce10d89898460405161171793929190612688565b60405180910390a260066000815480929190611732906126bf565b9190505550505050505050505050565b60065481565b600260009054906101000a900460ff16611797576040517f08c379a000000000000000000000000000000000000000000000000000000000815260040161178e90612754565b60405180910390fd5b6000600260006101000a81548160ff0219169083151502179055507f0b5f6bf058282d5cc003efc735b9ee453bbd7f9bef4c6db6300d095f3eefac2860405160405180910390a1565b600260009054906101000a900460ff1681565b600460019054906101000a900473ffffffffffffffffffffffffffffffffffffffff1673ffffffffffffffffffffffffffffffffffffffff163373ffffffffffffffffffffffffffffffffffffffff1614611883576040517f08c379a000000000000000000000000000000000000000000000000000000000815260040161187a90612015565b60405180910390fd5b8160038190555080600460006101000a81548160ff0219169083151502179055506001600260006101000a81548160ff0219169083151502179055507faa156aa8eb148a0ccce210026c57e10f7da7b4d62043a69e58bfc0f4d246dfb8600354600460009054906101000a900460ff16604051611901929190612774565b60405180910390a15050565b60035481565b60006001600083815260200190815260200160002060010160009054906101000a900473ffffffffffffffffffffffffffffffffffffffff169050919050565b6119e9816040516024016119679190612825565b6040516020818303038152906040527f41304fac000000000000000000000000000000000000000000000000000000007bffffffffffffffffffffffffffffffffffffffffffffffffffffffff19166020820180517bffffffffffffffffffffffffffffffffffffffffffffffffffffffff8381831617835250505050611c5f565b50565b611a848282604051602401611a02929190612847565b6040516020818303038152906040527fb60e72cc000000000000000000000000000000000000000000000000000000007bffffffffffffffffffffffffffffffffffffffffffffffffffffffff19166020820180517bffffffffffffffffffffffffffffffffffffffffffffffffffffffff8381831617835250505050611c5f565b5050565b611b208282604051602401611a9e929190612877565b6040516020818303038152906040527fc3b55635000000000000000000000000000000000000000000000000000000007bffffffffffffffffffffffffffffffffffffffffffffffffffffffff19166020820180517bffffffffffffffffffffffffffffffffffffffffffffffffffffffff8381831617835250505050611c5f565b5050565b611bbc8282604051602401611b3a9291906128a7565b6040516020818303038152906040527f319af333000000000000000000000000000000000000000000000000000000007bffffffffffffffffffffffffffffffffffffffffffffffffffffffff19166020820180517bffffffffffffffffffffffffffffffffffffffffffffffffffffffff8381831617835250505050611c5f565b5050565b611c5a838383604051602401611bd8939291906128d7565b6040516020818303038152906040527f5970e089000000000000000000000000000000000000000000000000000000007bffffffffffffffffffffffffffffffffffffffffffffffffffffffff19166020820180517bffffffffffffffffffffffffffffffffffffffffffffffffffffffff8381831617835250505050611c5f565b505050565b611c7681611c6e611c79611c9a565b63ffffffff16565b50565b60006a636f6e736f6c652e6c6f679050600080835160208501845afa505050565b611ca5819050919050565b611cad61291c565b565b600073ffffffffffffffffffffffffffffffffffffffff82169050919050565b6000611cda82611caf565b9050919050565b611cea81611ccf565b82525050565b6000602082019050611d056000830184611ce1565b92915050565b60008115159050919050565b611d2081611d0b565b82525050565b6000602082019050611d3b6000830184611d17565b92915050565b600080fd5b611d4f81611ccf565b8114611d5a57600080fd5b50565b600081359050611d6c81611d46565b92915050565b600060208284031215611d8857611d87611d41565b5b6000611d9684828501611d5d565b91505092915050565b6000819050919050565b611db281611d9f565b8114611dbd57600080fd5b50565b600081359050611dcf81611da9565b92915050565b600060208284031215611deb57611dea611d41565b5b6000611df984828501611dc0565b91505092915050565b611e0b81611d9f565b82525050565b600060a082019050611e266000830188611ce1565b611e336020830187611ce1565b611e406040830186611e02565b611e4d6060830185611e02565b611e5a6080830184611d17565b9695505050505050565b6000602082019050611e796000830184611e02565b92915050565b60008060408385031215611e9657611e95611d41565b5b6000611ea485828601611d5d565b9250506020611eb585828601611d5d565b9150509250929050565b60008060008060808587031215611ed957611ed8611d41565b5b6000611ee787828801611d5d565b9450506020611ef887828801611d5d565b9350506040611f0987828801611dc0565b9250506060611f1a87828801611dc0565b91505092959194509250565b611f2f81611d0b565b8114611f3a57600080fd5b50565b600081359050611f4c81611f26565b92915050565b60008060408385031215611f6957611f68611d41565b5b6000611f7785828601611dc0565b9250506020611f8885828601611f3d565b9150509250929050565b600082825260208201905092915050565b7f4f6e6c79207468652054534f2041646d696e2063616e20706572666f726d207460008201527f68697320616374696f6e00000000000000000000000000000000000000000000602082015250565b6000611fff602a83611f92565b915061200a82611fa3565b604082019050919050565b6000602082019050818103600083015261202e81611ff2565b9050919050565b7f4d61726b6574206973207374696c6c206f70656e000000000000000000000000600082015250565b600061206b601483611f92565b915061207682612035565b602082019050919050565b6000602082019050818103600083015261209a8161205e565b9050919050565b7f4e487b7100000000000000000000000000000000000000000000000000000000600052601160045260246000fd5b60006120db82611d9f565b91506120e683611d9f565b9250827fffffffffffffffffffffffffffffffffffffffffffffffffffffffffffffffff0382111561211b5761211a6120a1565b5b828201905092915050565b600060408201905061213b6000830185611e02565b6121486020830184611e02565b9392505050565b7f426964206e6f7420616363657074656400000000000000000000000000000000600082015250565b6000612185601083611f92565b91506121908261214f565b602082019050919050565b600060208201905081810360008301526121b481612178565b9050919050565b60006121c682611d9f565b91506121d183611d9f565b9250817fffffffffffffffffffffffffffffffffffffffffffffffffffffffffffffffff048311821515161561220a576122096120a1565b5b828202905092915050565b7f496e73756666696369656e742066756e64730000000000000000000000000000600082015250565b600061224b601283611f92565b915061225682612215565b602082019050919050565b6000602082019050818103600083015261227a8161223e565b9050919050565b60008151905061229081611da9565b92915050565b6000602082840312156122ac576122ab611d41565b5b60006122ba84828501612281565b91505092915050565b7f4e487b7100000000000000000000000000000000000000000000000000000000600052601260045260246000fd5b60006122fd82611d9f565b915061230883611d9f565b925082612318576123176122c3565b5b828204905092915050565b600061232e82611d9f565b915061233983611d9f565b92508282101561234c5761234b6120a1565b5b828203905092915050565b600060608201905061236c6000830186611ce1565b6123796020830185611e02565b6123866040830184611d17565b949350505050565b7f4d61726b6574206973206e6f74206f70656e0000000000000000000000000000600082015250565b60006123c4601283611f92565b91506123cf8261238e565b602082019050919050565b600060208201905081810360008301526123f3816123b7565b9050919050565b7f4f6e6c7920746865206269646465722063616e20706c6163652074686520626960008201527f6473000000000000000000000000000000000000000000000000000000000000602082015250565b6000612456602283611f92565b9150612461826123fa565b604082019050919050565b6000602082019050818103600083015261248581612449565b9050919050565b7f41676772656761746f72206e6f7420666f756e6420666f72206261747465727960008201527f206f776e65720000000000000000000000000000000000000000000000000000602082015250565b60006124e8602683611f92565b91506124f38261248c565b604082019050919050565b60006020820190508181036000830152612517816124db565b9050919050565b7f416d6f756e7420706c616365642065786365656473206261747465727920636160008201527f706163697479206f7220536f4300000000000000000000000000000000000000602082015250565b600061257a602d83611f92565b91506125858261251e565b604082019050919050565b600060208201905081810360008301526125a98161256d565b9050919050565b7f426174746572792069732066756c6c0000000000000000000000000000000000600082015250565b60006125e6600f83611f92565b91506125f1826125b0565b602082019050919050565b60006020820190508181036000830152612615816125d9565b9050919050565b7f5072696365206d7573742062652067726561746572207468616e203000000000600082015250565b6000612652601c83611f92565b915061265d8261261c565b602082019050919050565b6000602082019050818103600083015261268181612645565b9050919050565b600060608201905061269d6000830186611ce1565b6126aa6020830185611e02565b6126b76040830184611e02565b949350505050565b60006126ca82611d9f565b91507fffffffffffffffffffffffffffffffffffffffffffffffffffffffffffffffff8214156126fd576126fc6120a1565b5b600182019050919050565b7f4d61726b657420697320616c726561647920636c6f7365640000000000000000600082015250565b600061273e601883611f92565b915061274982612708565b602082019050919050565b6000602082019050818103600083015261276d81612731565b9050919050565b60006040820190506127896000830185611e02565b6127966020830184611d17565b9392505050565b600081519050919050565b60005b838110156127c65780820151818401526020810190506127ab565b838111156127d5576000848401525b50505050565b6000601f19601f8301169050919050565b60006127f78261279d565b6128018185611f92565b93506128118185602086016127a8565b61281a816127db565b840191505092915050565b6000602082019050818103600083015261283f81846127ec565b905092915050565b6000604082019050818103600083015261286181856127ec565b90506128706020830184611e02565b9392505050565b6000604082019050818103600083015261289181856127ec565b90506128a06020830184611d17565b9392505050565b600060408201905081810360008301526128c181856127ec565b90506128d06020830184611ce1565b9392505050565b600060608201905081810360008301526128f181866127ec565b90506129006020830185611e02565b818103604083015261291281846127ec565b9050949350505050565b7f4e487b7100000000000000000000000000000000000000000000000000000000600052605160045260246000fdfe5570646174696e67204261747465727920536f4320666f722062617474657279206f776e65723a456e657267792073656c65637465642069732067726561746572207468616e20726571756972656420656e65726779a264697066735822122029c50f1cbcdde949b3493295cac3ff58be4d1b96bc3886e383f7ff78ae5bcc2f64736f6c63430008090033",
  "linkReferences": {},
  "deployedLinkReferences": {}
}