{
  "_format": "hh-sol-artifact-1",
  "contractName": "TSO",
  "sourceName": "contracts/TSO.sol",
  "abi": [
    {
      "inputs": [
        {
          "internalType": "address",
          "name": "_aggregatorAddress",
          "type": "address"
        }
      ],
      "stateMutability": "nonpayable",
      "type": "constructor"
    },
    {
      "anonymous": false,
      "inputs": [
        {
          "indexed": false,
          "internalType": "address",
          "name": "batteryOwner",
          "type": "address"
        },
        {
          "indexed": false,
          "internalType": "uint256",
          "name": "amount",
          "type": "uint256"
        },
        {
          "indexed": false,
          "internalType": "uint256",
          "name": "price",
          "type": "uint256"
        }
      ],
      "name": "BidPlaced",
      "type": "event"
    },
    {
      "anonymous": false,
      "inputs": [
        {
          "indexed": true,
          "internalType": "address",
          "name": "batteryOwner",
          "type": "address"
        },
        {
          "indexed": false,
          "internalType": "uint256",
          "name": "amount",
          "type": "uint256"
        },
        {
          "indexed": false,
          "internalType": "uint256",
          "name": "price",
          "type": "uint256"
        }
      ],
      "name": "BidSelected",
      "type": "event"
    },
    {
      "anonymous": false,
      "inputs": [],
      "name": "MarketClosed",
      "type": "event"
    },
    {
      "anonymous": false,
      "inputs": [
        {
          "indexed": false,
          "internalType": "uint256",
          "name": "requiredEnergy",
          "type": "uint256"
        },
        {
          "indexed": false,
          "internalType": "bool",
          "name": "isPositiveReserve",
          "type": "bool"
        }
      ],
      "name": "MarketOpened",
      "type": "event"
    },
    {
      "anonymous": false,
      "inputs": [
        {
          "indexed": true,
          "internalType": "address",
          "name": "aggregatorOwner",
          "type": "address"
        },
        {
          "indexed": false,
          "internalType": "uint256",
          "name": "commission",
          "type": "uint256"
        }
      ],
      "name": "PaymentToAggregatorOwnerRecorded",
      "type": "event"
    },
    {
      "anonymous": false,
      "inputs": [
        {
          "indexed": true,
          "internalType": "address",
          "name": "batteryOwner",
          "type": "address"
        },
        {
          "indexed": false,
          "internalType": "uint256",
          "name": "payment",
          "type": "uint256"
        }
      ],
      "name": "PaymentToBatteryOwnerRecorded",
      "type": "event"
    },
    {
      "inputs": [
        {
          "internalType": "uint256",
          "name": "_bidId",
          "type": "uint256"
        }
      ],
      "name": "acceptBid",
      "outputs": [],
      "stateMutability": "payable",
      "type": "function"
    },
    {
      "inputs": [],
      "name": "aggregator",
      "outputs": [
        {
          "internalType": "contract Aggregator",
          "name": "",
          "type": "address"
        }
      ],
      "stateMutability": "view",
      "type": "function"
    },
    {
      "inputs": [],
      "name": "bidCount",
      "outputs": [
        {
          "internalType": "uint256",
          "name": "",
          "type": "uint256"
        }
      ],
      "stateMutability": "view",
      "type": "function"
    },
    {
      "inputs": [
        {
          "internalType": "uint256",
          "name": "",
          "type": "uint256"
        }
      ],
      "name": "bids",
      "outputs": [
        {
          "internalType": "address",
          "name": "batteryOwner",
          "type": "address"
        },
        {
          "internalType": "uint256",
          "name": "amount",
          "type": "uint256"
        },
        {
          "internalType": "uint256",
          "name": "price",
          "type": "uint256"
        },
        {
          "internalType": "bool",
          "name": "isSelected",
          "type": "bool"
        }
      ],
      "stateMutability": "view",
      "type": "function"
    },
    {
      "inputs": [],
      "name": "closeMarket",
      "outputs": [],
      "stateMutability": "nonpayable",
      "type": "function"
    },
    {
      "inputs": [],
      "name": "getRequiredEnergy",
      "outputs": [
        {
          "internalType": "uint256",
          "name": "",
          "type": "uint256"
        }
      ],
      "stateMutability": "view",
      "type": "function"
    },
    {
      "inputs": [],
      "name": "isPositiveReserve",
      "outputs": [
        {
          "internalType": "bool",
          "name": "",
          "type": "bool"
        }
      ],
      "stateMutability": "view",
      "type": "function"
    },
    {
      "inputs": [],
      "name": "marketOpen",
      "outputs": [
        {
          "internalType": "bool",
          "name": "",
          "type": "bool"
        }
      ],
      "stateMutability": "view",
      "type": "function"
    },
    {
      "inputs": [
        {
          "internalType": "uint256",
          "name": "_requiredEnergy",
          "type": "uint256"
        },
        {
          "internalType": "bool",
          "name": "_isPositiveReserve",
          "type": "bool"
        }
      ],
      "name": "openMarket",
      "outputs": [],
      "stateMutability": "nonpayable",
      "type": "function"
    },
    {
      "inputs": [
        {
          "internalType": "address",
          "name": "_batteryOwner",
          "type": "address"
        },
        {
          "internalType": "uint256",
          "name": "_amountInKWh",
          "type": "uint256"
        },
        {
          "internalType": "uint256",
          "name": "_pricePerMWh",
          "type": "uint256"
        }
      ],
      "name": "placeBid",
      "outputs": [],
      "stateMutability": "nonpayable",
      "type": "function"
    },
    {
      "inputs": [
        {
          "internalType": "uint256",
          "name": "_bidId",
          "type": "uint256"
        }
      ],
      "name": "processPayment",
      "outputs": [],
      "stateMutability": "payable",
      "type": "function"
    },
    {
      "inputs": [],
      "name": "requiredEnergy",
      "outputs": [
        {
          "internalType": "uint256",
          "name": "",
          "type": "uint256"
        }
      ],
      "stateMutability": "view",
      "type": "function"
    },
    {
      "inputs": [],
      "name": "totalSelectedEnergy",
      "outputs": [
        {
          "internalType": "uint256",
          "name": "",
          "type": "uint256"
        }
      ],
      "stateMutability": "view",
      "type": "function"
    },
    {
      "inputs": [],
      "name": "tsoAdmin",
      "outputs": [
        {
          "internalType": "address",
          "name": "",
          "type": "address"
        }
      ],
      "stateMutability": "view",
      "type": "function"
    }
  ],
  "bytecode": "0x60806040523480156200001157600080fd5b5060405162001bdc38038062001bdc83398181016040528101906200003791906200012a565b33600360016101000a81548173ffffffffffffffffffffffffffffffffffffffff021916908373ffffffffffffffffffffffffffffffffffffffff16021790555080600660006101000a81548173ffffffffffffffffffffffffffffffffffffffff021916908373ffffffffffffffffffffffffffffffffffffffff160217905550506200015c565b600080fd5b600073ffffffffffffffffffffffffffffffffffffffff82169050919050565b6000620000f282620000c5565b9050919050565b6200010481620000e5565b81146200011057600080fd5b50565b6000815190506200012481620000f9565b92915050565b600060208284031215620001435762000142620000c0565b5b6000620001538482850162000113565b91505092915050565b611a70806200016c6000396000f3fe6080604052600436106100dd5760003560e01c80635ebf900d1161007f578063c511ed5e11610059578063c511ed5e14610285578063c66bc0461461029c578063d6e0cd17146102c7578063e2a886bd146102f0576100dd565b80635ebf900d1461020457806366bf45701461022f578063b40a56271461025a576100dd565b8063245a7bfc116100bb578063245a7bfc146101615780632b1fd58a1461018c5780633a2f8485146101a85780634423c5f1146101c4576100dd565b80630270ada4146100e257806304717aca1461010d57806304eb435f14610136575b600080fd5b3480156100ee57600080fd5b506100f761031b565b60405161010491906110aa565b60405180910390f35b34801561011957600080fd5b50610134600480360381019061012f919061112c565b610341565b005b34801561014257600080fd5b5061014b61072d565b604051610158919061119a565b60405180910390f35b34801561016d57600080fd5b50610176610740565b6040516101839190611214565b60405180910390f35b6101a660048036038101906101a1919061122f565b610766565b005b6101c260048036038101906101bd919061122f565b610978565b005b3480156101d057600080fd5b506101eb60048036038101906101e6919061122f565b610e66565b6040516101fb949392919061126b565b60405180910390f35b34801561021057600080fd5b50610219610ec3565b60405161022691906112b0565b60405180910390f35b34801561023b57600080fd5b50610244610ecd565b60405161025191906112b0565b60405180910390f35b34801561026657600080fd5b5061026f610ed3565b60405161027c91906112b0565b60405180910390f35b34801561029157600080fd5b5061029a610ed9565b005b3480156102a857600080fd5b506102b1610f71565b6040516102be919061119a565b60405180910390f35b3480156102d357600080fd5b506102ee60048036038101906102e991906112f7565b610f84565b005b3480156102fc57600080fd5b50610305611063565b60405161031291906112b0565b60405180910390f35b600360019054906101000a900473ffffffffffffffffffffffffffffffffffffffff1681565b600160009054906101000a900460ff16610390576040517f08c379a000000000000000000000000000000000000000000000000000000000815260040161038790611394565b60405180910390fd5b6000600660009054906101000a900473ffffffffffffffffffffffffffffffffffffffff1673ffffffffffffffffffffffffffffffffffffffff16637edaff94856040518263ffffffff1660e01b81526004016103ed91906110aa565b60206040518083038186803b15801561040557600080fd5b505afa158015610419573d6000803e3d6000fd5b505050506040513d601f19601f8201168201806040525081019061043d91906113c9565b90506000600660009054906101000a900473ffffffffffffffffffffffffffffffffffffffff1673ffffffffffffffffffffffffffffffffffffffff16633e395962866040518263ffffffff1660e01b815260040161049c91906110aa565b60206040518083038186803b1580156104b457600080fd5b505afa1580156104c8573d6000803e3d6000fd5b505050506040513d601f19601f820116820180604052508101906104ec91906113c9565b9050600360009054906101000a900460ff161561056257808261050f9190611425565b60648561051c9190611425565b111561055d576040517f08c379a0000000000000000000000000000000000000000000000000000000008152600401610554906114f1565b60405180910390fd5b6105a6565b606482106105a5576040517f08c379a000000000000000000000000000000000000000000000000000000000815260040161059c9061155d565b60405180910390fd5b5b600083116105e9576040517f08c379a00000000000000000000000000000000000000000000000000000000081526004016105e0906115c9565b60405180910390fd5b60006103e885856105fa9190611425565b6106049190611618565b905060405180608001604052808773ffffffffffffffffffffffffffffffffffffffff16815260200186815260200182815260200160001515815250600080600454815260200190815260200160002060008201518160000160006101000a81548173ffffffffffffffffffffffffffffffffffffffff021916908373ffffffffffffffffffffffffffffffffffffffff160217905550602082015181600101556040820151816002015560608201518160030160006101000a81548160ff0219169083151502179055509050507fdf8644c0a4c21ed214ce69f395675b3a5fcd1039083daea5058898de40ea314986868360405161070593929190611649565b60405180910390a16004600081548092919061072090611680565b9190505550505050505050565b600360009054906101000a900460ff1681565b600660009054906101000a900473ffffffffffffffffffffffffffffffffffffffff1681565b600160009054906101000a900460ff16156107b6576040517f08c379a00000000000000000000000000000000000000000000000000000000081526004016107ad90611715565b60405180910390fd5b600060055490506002548110610801576040517f08c379a00000000000000000000000000000000000000000000000000000000081526004016107f890611781565b60405180910390fd5b600160008084815260200190815260200160002060030160006101000a81548160ff021916908315150217905550600080838152602001908152602001600020600101548161085091906117a1565b90508060058190555060008083815260200190815260200160002060000160009054906101000a900473ffffffffffffffffffffffffffffffffffffffff1673ffffffffffffffffffffffffffffffffffffffff167f66edc0473c18faf132f9a6974a29aac1cfc61b42a142271b34c926bcc7ae59fe60008085815260200190815260200160002060010154600080868152602001908152602001600020600201546040516109009291906117f7565b60405180910390a23073ffffffffffffffffffffffffffffffffffffffff16633a2f848534846040518363ffffffff1660e01b815260040161094291906112b0565b6000604051808303818588803b15801561095b57600080fd5b505af115801561096f573d6000803e3d6000fd5b50505050505050565b60008082815260200190815260200160002060030160009054906101000a900460ff166109da576040517f08c379a00000000000000000000000000000000000000000000000000000000081526004016109d19061186c565b60405180910390fd5b60006064600660009054906101000a900473ffffffffffffffffffffffffffffffffffffffff1673ffffffffffffffffffffffffffffffffffffffff16635ea1d6f86040518163ffffffff1660e01b815260040160206040518083038186803b158015610a4657600080fd5b505afa158015610a5a573d6000803e3d6000fd5b505050506040513d601f19601f82011682018060405250810190610a7e91906113c9565b34610a899190611425565b610a939190611618565b905060008134610aa3919061188c565b905060008084815260200190815260200160002060000160009054906101000a900473ffffffffffffffffffffffffffffffffffffffff1673ffffffffffffffffffffffffffffffffffffffff166108fc829081150290604051600060405180830381858888f19350505050158015610b20573d6000803e3d6000fd5b5060008084815260200190815260200160002060000160009054906101000a900473ffffffffffffffffffffffffffffffffffffffff1673ffffffffffffffffffffffffffffffffffffffff167f05622d675ae17b6095d9de6bd6448ed94a9e4ef429dd071bccc722048aac18cf82604051610b9c91906112b0565b60405180910390a2600660009054906101000a900473ffffffffffffffffffffffffffffffffffffffff1673ffffffffffffffffffffffffffffffffffffffff16638da5cb5b6040518163ffffffff1660e01b815260040160206040518083038186803b158015610c0c57600080fd5b505afa158015610c20573d6000803e3d6000fd5b505050506040513d601f19601f82011682018060405250810190610c4491906118d5565b73ffffffffffffffffffffffffffffffffffffffff166108fc839081150290604051600060405180830381858888f19350505050158015610c89573d6000803e3d6000fd5b50600660009054906101000a900473ffffffffffffffffffffffffffffffffffffffff1673ffffffffffffffffffffffffffffffffffffffff16638da5cb5b6040518163ffffffff1660e01b815260040160206040518083038186803b158015610cf257600080fd5b505afa158015610d06573d6000803e3d6000fd5b505050506040513d601f19601f82011682018060405250810190610d2a91906118d5565b73ffffffffffffffffffffffffffffffffffffffff167fb6566daf73f0ad3b232c916b0188d8e5a84b2a34ffe61283799015ea02cff7ec83604051610d6f91906112b0565b60405180910390a2600660009054906101000a900473ffffffffffffffffffffffffffffffffffffffff1673ffffffffffffffffffffffffffffffffffffffff16639e9b522c60008086815260200190815260200160002060000160009054906101000a900473ffffffffffffffffffffffffffffffffffffffff1660008087815260200190815260200160002060010154600360009054906101000a900460ff166040518463ffffffff1660e01b8152600401610e2f93929190611902565b600060405180830381600087803b158015610e4957600080fd5b505af1158015610e5d573d6000803e3d6000fd5b50505050505050565b60006020528060005260406000206000915090508060000160009054906101000a900473ffffffffffffffffffffffffffffffffffffffff16908060010154908060020154908060030160009054906101000a900460ff16905084565b6000600254905090565b60055481565b60045481565b600160009054906101000a900460ff16610f28576040517f08c379a0000000000000000000000000000000000000000000000000000000008152600401610f1f90611985565b60405180910390fd5b6000600160006101000a81548160ff0219169083151502179055507f0b5f6bf058282d5cc003efc735b9ee453bbd7f9bef4c6db6300d095f3eefac2860405160405180910390a1565b600160009054906101000a900460ff1681565b60001515600160009054906101000a900460ff16151514610fda576040517f08c379a0000000000000000000000000000000000000000000000000000000008152600401610fd1906119f1565b60405180910390fd5b8160028190555080600360006101000a81548160ff02191690831515021790555060018060006101000a81548160ff0219169083151502179055507faa156aa8eb148a0ccce210026c57e10f7da7b4d62043a69e58bfc0f4d246dfb8600254600360009054906101000a900460ff16604051611057929190611a11565b60405180910390a15050565b60025481565b600073ffffffffffffffffffffffffffffffffffffffff82169050919050565b600061109482611069565b9050919050565b6110a481611089565b82525050565b60006020820190506110bf600083018461109b565b92915050565b600080fd5b6110d381611089565b81146110de57600080fd5b50565b6000813590506110f0816110ca565b92915050565b6000819050919050565b611109816110f6565b811461111457600080fd5b50565b60008135905061112681611100565b92915050565b600080600060608486031215611145576111446110c5565b5b6000611153868287016110e1565b935050602061116486828701611117565b925050604061117586828701611117565b9150509250925092565b60008115159050919050565b6111948161117f565b82525050565b60006020820190506111af600083018461118b565b92915050565b6000819050919050565b60006111da6111d56111d084611069565b6111b5565b611069565b9050919050565b60006111ec826111bf565b9050919050565b60006111fe826111e1565b9050919050565b61120e816111f3565b82525050565b60006020820190506112296000830184611205565b92915050565b600060208284031215611245576112446110c5565b5b600061125384828501611117565b91505092915050565b611265816110f6565b82525050565b6000608082019050611280600083018761109b565b61128d602083018661125c565b61129a604083018561125c565b6112a7606083018461118b565b95945050505050565b60006020820190506112c5600083018461125c565b92915050565b6112d48161117f565b81146112df57600080fd5b50565b6000813590506112f1816112cb565b92915050565b6000806040838503121561130e5761130d6110c5565b5b600061131c85828601611117565b925050602061132d858286016112e2565b9150509250929050565b600082825260208201905092915050565b7f4d61726b6574206973206e6f74206f70656e0000000000000000000000000000600082015250565b600061137e601283611337565b915061138982611348565b602082019050919050565b600060208201905081810360008301526113ad81611371565b9050919050565b6000815190506113c381611100565b92915050565b6000602082840312156113df576113de6110c5565b5b60006113ed848285016113b4565b91505092915050565b7f4e487b7100000000000000000000000000000000000000000000000000000000600052601160045260246000fd5b6000611430826110f6565b915061143b836110f6565b9250817fffffffffffffffffffffffffffffffffffffffffffffffffffffffffffffffff0483118215151615611474576114736113f6565b5b828202905092915050565b7f416d6f756e7420706c616365642065786365656473206261747465727920636160008201527f706163697479206f7220536f4300000000000000000000000000000000000000602082015250565b60006114db602d83611337565b91506114e68261147f565b604082019050919050565b6000602082019050818103600083015261150a816114ce565b9050919050565b7f426174746572792069732066756c6c0000000000000000000000000000000000600082015250565b6000611547600f83611337565b915061155282611511565b602082019050919050565b600060208201905081810360008301526115768161153a565b9050919050565b7f5072696365206d7573742062652067726561746572207468616e203000000000600082015250565b60006115b3601c83611337565b91506115be8261157d565b602082019050919050565b600060208201905081810360008301526115e2816115a6565b9050919050565b7f4e487b7100000000000000000000000000000000000000000000000000000000600052601260045260246000fd5b6000611623826110f6565b915061162e836110f6565b92508261163e5761163d6115e9565b5b828204905092915050565b600060608201905061165e600083018661109b565b61166b602083018561125c565b611678604083018461125c565b949350505050565b600061168b826110f6565b91507fffffffffffffffffffffffffffffffffffffffffffffffffffffffffffffffff8214156116be576116bd6113f6565b5b600182019050919050565b7f4d61726b6574206973207374696c6c206f70656e000000000000000000000000600082015250565b60006116ff601483611337565b915061170a826116c9565b602082019050919050565b6000602082019050818103600083015261172e816116f2565b9050919050565b7f526571756972656420656e6572677920616c72656164792073656c6563746564600082015250565b600061176b602083611337565b915061177682611735565b602082019050919050565b6000602082019050818103600083015261179a8161175e565b9050919050565b60006117ac826110f6565b91506117b7836110f6565b9250827fffffffffffffffffffffffffffffffffffffffffffffffffffffffffffffffff038211156117ec576117eb6113f6565b5b828201905092915050565b600060408201905061180c600083018561125c565b611819602083018461125c565b9392505050565b7f426964206e6f7420616363657074656400000000000000000000000000000000600082015250565b6000611856601083611337565b915061186182611820565b602082019050919050565b6000602082019050818103600083015261188581611849565b9050919050565b6000611897826110f6565b91506118a2836110f6565b9250828210156118b5576118b46113f6565b5b828203905092915050565b6000815190506118cf816110ca565b92915050565b6000602082840312156118eb576118ea6110c5565b5b60006118f9848285016118c0565b91505092915050565b6000606082019050611917600083018661109b565b611924602083018561125c565b611931604083018461118b565b949350505050565b7f4d61726b657420697320616c726561647920636c6f7365640000000000000000600082015250565b600061196f601883611337565b915061197a82611939565b602082019050919050565b6000602082019050818103600083015261199e81611962565b9050919050565b7f4d61726b657420697320616c7265616479206f70656e00000000000000000000600082015250565b60006119db601683611337565b91506119e6826119a5565b602082019050919050565b60006020820190508181036000830152611a0a816119ce565b9050919050565b6000604082019050611a26600083018561125c565b611a33602083018461118b565b939250505056fea264697066735822122046298e17f020d477b11702b7bdc23bf8afaa406a20c6eb202ab462b477b98fec64736f6c63430008090033",
  "linkReferences": {},
  "deployedLinkReferences": {}
}