{
  "_format": "hh-sol-artifact-1",
  "contractName": "TSO",
  "sourceName": "contracts/TSO.sol",
  "abi": [
    {
      "inputs": [
        {
          "internalType": "address",
          "name": "_tsoAdmin",
          "type": "address"
        }
      ],
      "stateMutability": "nonpayable",
      "type": "constructor"
    },
    {
      "anonymous": false,
      "inputs": [
        {
          "indexed": true,
          "internalType": "address",
          "name": "bidder",
          "type": "address"
        },
        {
          "indexed": false,
          "internalType": "address",
          "name": "batteryOwner",
          "type": "address"
        },
        {
          "indexed": false,
          "internalType": "uint256",
          "name": "amount",
          "type": "uint256"
        },
        {
          "indexed": false,
          "internalType": "uint256",
          "name": "price",
          "type": "uint256"
        }
      ],
      "name": "BidPlaced",
      "type": "event"
    },
    {
      "anonymous": false,
      "inputs": [
        {
          "indexed": true,
          "internalType": "address",
          "name": "batteryOwner",
          "type": "address"
        },
        {
          "indexed": false,
          "internalType": "uint256",
          "name": "amount",
          "type": "uint256"
        },
        {
          "indexed": false,
          "internalType": "uint256",
          "name": "price",
          "type": "uint256"
        }
      ],
      "name": "BidSelected",
      "type": "event"
    },
    {
      "anonymous": false,
      "inputs": [],
      "name": "MarketClosed",
      "type": "event"
    },
    {
      "anonymous": false,
      "inputs": [
        {
          "indexed": false,
          "internalType": "uint256",
          "name": "requiredEnergy",
          "type": "uint256"
        },
        {
          "indexed": false,
          "internalType": "bool",
          "name": "isPositiveReserve",
          "type": "bool"
        }
      ],
      "name": "MarketOpened",
      "type": "event"
    },
    {
      "anonymous": false,
      "inputs": [
        {
          "indexed": true,
          "internalType": "address",
          "name": "bidder",
          "type": "address"
        },
        {
          "indexed": false,
          "internalType": "uint256",
          "name": "commission",
          "type": "uint256"
        }
      ],
      "name": "PaymentToAggregatorOwnerRecorded",
      "type": "event"
    },
    {
      "anonymous": false,
      "inputs": [
        {
          "indexed": true,
          "internalType": "address",
          "name": "batteryOwner",
          "type": "address"
        },
        {
          "indexed": false,
          "internalType": "uint256",
          "name": "payment",
          "type": "uint256"
        }
      ],
      "name": "PaymentToBatteryOwnerRecorded",
      "type": "event"
    },
    {
      "inputs": [
        {
          "internalType": "uint256",
          "name": "_bidId",
          "type": "uint256"
        }
      ],
      "name": "acceptBid",
      "outputs": [],
      "stateMutability": "payable",
      "type": "function"
    },
    {
      "inputs": [
        {
          "internalType": "address",
          "name": "",
          "type": "address"
        }
      ],
      "name": "aggregators",
      "outputs": [
        {
          "internalType": "address",
          "name": "",
          "type": "address"
        }
      ],
      "stateMutability": "view",
      "type": "function"
    },
    {
      "inputs": [],
      "name": "bidCount",
      "outputs": [
        {
          "internalType": "uint256",
          "name": "",
          "type": "uint256"
        }
      ],
      "stateMutability": "view",
      "type": "function"
    },
    {
      "inputs": [
        {
          "internalType": "uint256",
          "name": "",
          "type": "uint256"
        }
      ],
      "name": "bids",
      "outputs": [
        {
          "internalType": "address",
          "name": "bidder",
          "type": "address"
        },
        {
          "internalType": "address",
          "name": "batteryOwner",
          "type": "address"
        },
        {
          "internalType": "uint256",
          "name": "amount",
          "type": "uint256"
        },
        {
          "internalType": "uint256",
          "name": "price",
          "type": "uint256"
        },
        {
          "internalType": "bool",
          "name": "isSelected",
          "type": "bool"
        }
      ],
      "stateMutability": "view",
      "type": "function"
    },
    {
      "inputs": [],
      "name": "closeMarket",
      "outputs": [],
      "stateMutability": "nonpayable",
      "type": "function"
    },
    {
      "inputs": [],
      "name": "isPositiveReserve",
      "outputs": [
        {
          "internalType": "bool",
          "name": "",
          "type": "bool"
        }
      ],
      "stateMutability": "view",
      "type": "function"
    },
    {
      "inputs": [],
      "name": "marketOpen",
      "outputs": [
        {
          "internalType": "bool",
          "name": "",
          "type": "bool"
        }
      ],
      "stateMutability": "view",
      "type": "function"
    },
    {
      "inputs": [
        {
          "internalType": "uint256",
          "name": "_requiredEnergy",
          "type": "uint256"
        },
        {
          "internalType": "bool",
          "name": "_isPositiveReserve",
          "type": "bool"
        }
      ],
      "name": "openMarket",
      "outputs": [],
      "stateMutability": "nonpayable",
      "type": "function"
    },
    {
      "inputs": [
        {
          "internalType": "address",
          "name": "_bidder",
          "type": "address"
        },
        {
          "internalType": "address",
          "name": "_batteryOwner",
          "type": "address"
        },
        {
          "internalType": "uint256",
          "name": "_amountInKWh",
          "type": "uint256"
        },
        {
          "internalType": "uint256",
          "name": "_pricePerMWh",
          "type": "uint256"
        }
      ],
      "name": "placeBid",
      "outputs": [],
      "stateMutability": "nonpayable",
      "type": "function"
    },
    {
      "inputs": [
        {
          "internalType": "uint256",
          "name": "_bidId",
          "type": "uint256"
        }
      ],
      "name": "processPayment",
      "outputs": [],
      "stateMutability": "payable",
      "type": "function"
    },
    {
      "inputs": [],
      "name": "requiredEnergy",
      "outputs": [
        {
          "internalType": "uint256",
          "name": "",
          "type": "uint256"
        }
      ],
      "stateMutability": "view",
      "type": "function"
    },
    {
      "inputs": [
        {
          "internalType": "address",
          "name": "_batteryOwner",
          "type": "address"
        },
        {
          "internalType": "address",
          "name": "_aggregator",
          "type": "address"
        }
      ],
      "name": "setAggregator",
      "outputs": [],
      "stateMutability": "nonpayable",
      "type": "function"
    },
    {
      "inputs": [],
      "name": "totalSelectedEnergy",
      "outputs": [
        {
          "internalType": "uint256",
          "name": "",
          "type": "uint256"
        }
      ],
      "stateMutability": "view",
      "type": "function"
    },
    {
      "inputs": [],
      "name": "tsoAdmin",
      "outputs": [
        {
          "internalType": "address",
          "name": "",
          "type": "address"
        }
      ],
      "stateMutability": "view",
      "type": "function"
    }
  ],
  "bytecode": "0x60806040523480156200001157600080fd5b506040516200238c3803806200238c8339818101604052810190620000379190620000e9565b80600460016101000a81548173ffffffffffffffffffffffffffffffffffffffff021916908373ffffffffffffffffffffffffffffffffffffffff160217905550506200011b565b600080fd5b600073ffffffffffffffffffffffffffffffffffffffff82169050919050565b6000620000b18262000084565b9050919050565b620000c381620000a4565b8114620000cf57600080fd5b50565b600081519050620000e381620000b8565b92915050565b6000602082840312156200010257620001016200007f565b5b60006200011284828501620000d2565b91505092915050565b612261806200012b6000396000f3fe6080604052600436106100dd5760003560e01c80637394a7f61161007f578063c511ed5e11610059578063c511ed5e14610296578063c66bc046146102ad578063d6e0cd17146102d8578063e2a886bd14610301576100dd565b80637394a7f614610219578063ab0c7d5614610242578063b40a56271461026b576100dd565b80632b1fd58a116100bb5780632b1fd58a146101755780633a2f8485146101915780634423c5f1146101ad57806366bf4570146101ee576100dd565b80630270ada4146100e257806304eb435f1461010d578063112cdab914610138575b600080fd5b3480156100ee57600080fd5b506100f761032c565b604051610104919061163c565b60405180910390f35b34801561011957600080fd5b50610122610352565b60405161012f9190611672565b60405180910390f35b34801561014457600080fd5b5061015f600480360381019061015a91906116be565b610365565b60405161016c919061163c565b60405180910390f35b61018f600480360381019061018a9190611721565b610398565b005b6101ab60048036038101906101a69190611721565b610627565b005b3480156101b957600080fd5b506101d460048036038101906101cf9190611721565b610baa565b6040516101e595949392919061175d565b60405180910390f35b3480156101fa57600080fd5b50610203610c2d565b60405161021091906117b0565b60405180910390f35b34801561022557600080fd5b50610240600480360381019061023b91906117cb565b610c33565b005b34801561024e57600080fd5b506102696004803603810190610264919061180b565b610d45565b005b34801561027757600080fd5b506102806112b1565b60405161028d91906117b0565b60405180910390f35b3480156102a257600080fd5b506102ab6112b7565b005b3480156102b957600080fd5b506102c26113df565b6040516102cf9190611672565b60405180910390f35b3480156102e457600080fd5b506102ff60048036038101906102fa919061189e565b6113f2565b005b34801561030d57600080fd5b5061031661150c565b60405161032391906117b0565b60405180910390f35b600460019054906101000a900473ffffffffffffffffffffffffffffffffffffffff1681565b600460009054906101000a900460ff1681565b60016020528060005260406000206000915054906101000a900473ffffffffffffffffffffffffffffffffffffffff1681565b600460019054906101000a900473ffffffffffffffffffffffffffffffffffffffff1673ffffffffffffffffffffffffffffffffffffffff163373ffffffffffffffffffffffffffffffffffffffff1614610428576040517f08c379a000000000000000000000000000000000000000000000000000000000815260040161041f90611961565b60405180910390fd5b600260009054906101000a900460ff1615610478576040517f08c379a000000000000000000000000000000000000000000000000000000000815260040161046f906119cd565b60405180910390fd5b6000600654905060035481101561060157600160008084815260200190815260200160002060040160006101000a81548160ff02191690831515021790555060008083815260200190815260200160002060020154816104d89190611a1c565b90508060068190555060008083815260200190815260200160002060010160009054906101000a900473ffffffffffffffffffffffffffffffffffffffff1673ffffffffffffffffffffffffffffffffffffffff167f66edc0473c18faf132f9a6974a29aac1cfc61b42a142271b34c926bcc7ae59fe6000808581526020019081526020016000206002015460008086815260200190815260200160002060030154604051610588929190611a72565b60405180910390a23073ffffffffffffffffffffffffffffffffffffffff16633a2f848534846040518363ffffffff1660e01b81526004016105ca91906117b0565b6000604051808303818588803b1580156105e357600080fd5b505af11580156105f7573d6000803e3d6000fd5b5050505050610623565b61062260405180606001604052806027815260200161220560279139611512565b5b5050565b60008082815260200190815260200160002060040160009054906101000a900460ff16610689576040517f08c379a000000000000000000000000000000000000000000000000000000000815260040161068090611ae7565b60405180910390fd5b600080600083815260200190815260200160002060030154600080848152602001908152602001600020600201546106c19190611b07565b9050803414610705576040517f08c379a00000000000000000000000000000000000000000000000000000000081526004016106fc90611bad565b60405180910390fd5b60006001600080600086815260200190815260200160002060010160009054906101000a900473ffffffffffffffffffffffffffffffffffffffff1673ffffffffffffffffffffffffffffffffffffffff1673ffffffffffffffffffffffffffffffffffffffff16815260200190815260200160002060009054906101000a900473ffffffffffffffffffffffffffffffffffffffff1690506000819050600060648273ffffffffffffffffffffffffffffffffffffffff16635ea1d6f86040518163ffffffff1660e01b815260040160206040518083038186803b1580156107ed57600080fd5b505afa158015610801573d6000803e3d6000fd5b505050506040513d601f19601f820116820180604052508101906108259190611be2565b346108309190611b07565b61083a9190611c3e565b90506000813461084a9190611c6f565b905060008087815260200190815260200160002060010160009054906101000a900473ffffffffffffffffffffffffffffffffffffffff1673ffffffffffffffffffffffffffffffffffffffff166108fc829081150290604051600060405180830381858888f193505050501580156108c7573d6000803e3d6000fd5b5060008087815260200190815260200160002060010160009054906101000a900473ffffffffffffffffffffffffffffffffffffffff1673ffffffffffffffffffffffffffffffffffffffff167f05622d675ae17b6095d9de6bd6448ed94a9e4ef429dd071bccc722048aac18cf8260405161094391906117b0565b60405180910390a28273ffffffffffffffffffffffffffffffffffffffff16638da5cb5b6040518163ffffffff1660e01b815260040160206040518083038186803b15801561099157600080fd5b505afa1580156109a5573d6000803e3d6000fd5b505050506040513d601f19601f820116820180604052508101906109c99190611cb8565b73ffffffffffffffffffffffffffffffffffffffff166108fc839081150290604051600060405180830381858888f19350505050158015610a0e573d6000803e3d6000fd5b508273ffffffffffffffffffffffffffffffffffffffff16638da5cb5b6040518163ffffffff1660e01b815260040160206040518083038186803b158015610a5557600080fd5b505afa158015610a69573d6000803e3d6000fd5b505050506040513d601f19601f82011682018060405250810190610a8d9190611cb8565b73ffffffffffffffffffffffffffffffffffffffff167fb6566daf73f0ad3b232c916b0188d8e5a84b2a34ffe61283799015ea02cff7ec83604051610ad291906117b0565b60405180910390a28273ffffffffffffffffffffffffffffffffffffffff16639e9b522c60008089815260200190815260200160002060010160009054906101000a900473ffffffffffffffffffffffffffffffffffffffff166000808a815260200190815260200160002060020154600460009054906101000a900460ff166040518463ffffffff1660e01b8152600401610b7093929190611ce5565b600060405180830381600087803b158015610b8a57600080fd5b505af1158015610b9e573d6000803e3d6000fd5b50505050505050505050565b60006020528060005260406000206000915090508060000160009054906101000a900473ffffffffffffffffffffffffffffffffffffffff16908060010160009054906101000a900473ffffffffffffffffffffffffffffffffffffffff16908060020154908060030154908060040160009054906101000a900460ff16905085565b60065481565b600460019054906101000a900473ffffffffffffffffffffffffffffffffffffffff1673ffffffffffffffffffffffffffffffffffffffff163373ffffffffffffffffffffffffffffffffffffffff1614610cc3576040517f08c379a0000000000000000000000000000000000000000000000000000000008152600401610cba90611961565b60405180910390fd5b80600160008473ffffffffffffffffffffffffffffffffffffffff1673ffffffffffffffffffffffffffffffffffffffff16815260200190815260200160002060006101000a81548173ffffffffffffffffffffffffffffffffffffffff021916908373ffffffffffffffffffffffffffffffffffffffff1602179055505050565b600260009054906101000a900460ff16610d94576040517f08c379a0000000000000000000000000000000000000000000000000000000008152600401610d8b90611d68565b60405180910390fd5b8373ffffffffffffffffffffffffffffffffffffffff163373ffffffffffffffffffffffffffffffffffffffff1614610e02576040517f08c379a0000000000000000000000000000000000000000000000000000000008152600401610df990611dfa565b60405180910390fd5b6000600160008573ffffffffffffffffffffffffffffffffffffffff1673ffffffffffffffffffffffffffffffffffffffff16815260200190815260200160002060009054906101000a900473ffffffffffffffffffffffffffffffffffffffff169050600073ffffffffffffffffffffffffffffffffffffffff168173ffffffffffffffffffffffffffffffffffffffff161415610ed6576040517f08c379a0000000000000000000000000000000000000000000000000000000008152600401610ecd90611e8c565b60405180910390fd5b600081905060008173ffffffffffffffffffffffffffffffffffffffff16637edaff94876040518263ffffffff1660e01b8152600401610f16919061163c565b60206040518083038186803b158015610f2e57600080fd5b505afa158015610f42573d6000803e3d6000fd5b505050506040513d601f19601f82011682018060405250810190610f669190611be2565b905060008273ffffffffffffffffffffffffffffffffffffffff16633e395962886040518263ffffffff1660e01b8152600401610fa3919061163c565b60206040518083038186803b158015610fbb57600080fd5b505afa158015610fcf573d6000803e3d6000fd5b505050506040513d601f19601f82011682018060405250810190610ff39190611be2565b9050600460009054906101000a900460ff16156110695780826110169190611b07565b6064876110239190611b07565b1115611064576040517f08c379a000000000000000000000000000000000000000000000000000000000815260040161105b90611f1e565b60405180910390fd5b6110ad565b606482106110ac576040517f08c379a00000000000000000000000000000000000000000000000000000000081526004016110a390611f8a565b60405180910390fd5b5b600085116110f0576040517f08c379a00000000000000000000000000000000000000000000000000000000081526004016110e790611ff6565b60405180910390fd5b60006103e887876111019190611b07565b61110b9190611c3e565b90506040518060a001604052808a73ffffffffffffffffffffffffffffffffffffffff1681526020018973ffffffffffffffffffffffffffffffffffffffff16815260200188815260200182815260200160001515815250600080600554815260200190815260200160002060008201518160000160006101000a81548173ffffffffffffffffffffffffffffffffffffffff021916908373ffffffffffffffffffffffffffffffffffffffff16021790555060208201518160010160006101000a81548173ffffffffffffffffffffffffffffffffffffffff021916908373ffffffffffffffffffffffffffffffffffffffff160217905550604082015181600201556060820151816003015560808201518160040160006101000a81548160ff0219169083151502179055509050508873ffffffffffffffffffffffffffffffffffffffff167fdd49bbb40d47a514dddcd458e9718364143bc24a0cca58439ee6f4f45e4ce10d89898460405161128693929190612016565b60405180910390a2600560008154809291906112a19061204d565b9190505550505050505050505050565b60055481565b600460019054906101000a900473ffffffffffffffffffffffffffffffffffffffff1673ffffffffffffffffffffffffffffffffffffffff163373ffffffffffffffffffffffffffffffffffffffff1614611347576040517f08c379a000000000000000000000000000000000000000000000000000000000815260040161133e90611961565b60405180910390fd5b600260009054906101000a900460ff16611396576040517f08c379a000000000000000000000000000000000000000000000000000000000815260040161138d906120e2565b60405180910390fd5b6000600260006101000a81548160ff0219169083151502179055507f0b5f6bf058282d5cc003efc735b9ee453bbd7f9bef4c6db6300d095f3eefac2860405160405180910390a1565b600260009054906101000a900460ff1681565b600460019054906101000a900473ffffffffffffffffffffffffffffffffffffffff1673ffffffffffffffffffffffffffffffffffffffff163373ffffffffffffffffffffffffffffffffffffffff1614611482576040517f08c379a000000000000000000000000000000000000000000000000000000000815260040161147990611961565b60405180910390fd5b8160038190555080600460006101000a81548160ff0219169083151502179055506001600260006101000a81548160ff0219169083151502179055507faa156aa8eb148a0ccce210026c57e10f7da7b4d62043a69e58bfc0f4d246dfb8600354600460009054906101000a900460ff16604051611500929190612102565b60405180910390a15050565b60035481565b6115a88160405160240161152691906121b3565b6040516020818303038152906040527f41304fac000000000000000000000000000000000000000000000000000000007bffffffffffffffffffffffffffffffffffffffffffffffffffffffff19166020820180517bffffffffffffffffffffffffffffffffffffffffffffffffffffffff83818316178352505050506115ab565b50565b6115c2816115ba6115c56115e6565b63ffffffff16565b50565b60006a636f6e736f6c652e6c6f679050600080835160208501845afa505050565b6115f1819050919050565b6115f96121d5565b565b600073ffffffffffffffffffffffffffffffffffffffff82169050919050565b6000611626826115fb565b9050919050565b6116368161161b565b82525050565b6000602082019050611651600083018461162d565b92915050565b60008115159050919050565b61166c81611657565b82525050565b60006020820190506116876000830184611663565b92915050565b600080fd5b61169b8161161b565b81146116a657600080fd5b50565b6000813590506116b881611692565b92915050565b6000602082840312156116d4576116d361168d565b5b60006116e2848285016116a9565b91505092915050565b6000819050919050565b6116fe816116eb565b811461170957600080fd5b50565b60008135905061171b816116f5565b92915050565b6000602082840312156117375761173661168d565b5b60006117458482850161170c565b91505092915050565b611757816116eb565b82525050565b600060a082019050611772600083018861162d565b61177f602083018761162d565b61178c604083018661174e565b611799606083018561174e565b6117a66080830184611663565b9695505050505050565b60006020820190506117c5600083018461174e565b92915050565b600080604083850312156117e2576117e161168d565b5b60006117f0858286016116a9565b9250506020611801858286016116a9565b9150509250929050565b600080600080608085870312156118255761182461168d565b5b6000611833878288016116a9565b9450506020611844878288016116a9565b93505060406118558782880161170c565b92505060606118668782880161170c565b91505092959194509250565b61187b81611657565b811461188657600080fd5b50565b60008135905061189881611872565b92915050565b600080604083850312156118b5576118b461168d565b5b60006118c38582860161170c565b92505060206118d485828601611889565b9150509250929050565b600082825260208201905092915050565b7f4f6e6c79207468652054534f2041646d696e2063616e20706572666f726d207460008201527f68697320616374696f6e00000000000000000000000000000000000000000000602082015250565b600061194b602a836118de565b9150611956826118ef565b604082019050919050565b6000602082019050818103600083015261197a8161193e565b9050919050565b7f4d61726b6574206973207374696c6c206f70656e000000000000000000000000600082015250565b60006119b76014836118de565b91506119c282611981565b602082019050919050565b600060208201905081810360008301526119e6816119aa565b9050919050565b7f4e487b7100000000000000000000000000000000000000000000000000000000600052601160045260246000fd5b6000611a27826116eb565b9150611a32836116eb565b9250827fffffffffffffffffffffffffffffffffffffffffffffffffffffffffffffffff03821115611a6757611a666119ed565b5b828201905092915050565b6000604082019050611a87600083018561174e565b611a94602083018461174e565b9392505050565b7f426964206e6f7420616363657074656400000000000000000000000000000000600082015250565b6000611ad16010836118de565b9150611adc82611a9b565b602082019050919050565b60006020820190508181036000830152611b0081611ac4565b9050919050565b6000611b12826116eb565b9150611b1d836116eb565b9250817fffffffffffffffffffffffffffffffffffffffffffffffffffffffffffffffff0483118215151615611b5657611b556119ed565b5b828202905092915050565b7f496e73756666696369656e742066756e64730000000000000000000000000000600082015250565b6000611b976012836118de565b9150611ba282611b61565b602082019050919050565b60006020820190508181036000830152611bc681611b8a565b9050919050565b600081519050611bdc816116f5565b92915050565b600060208284031215611bf857611bf761168d565b5b6000611c0684828501611bcd565b91505092915050565b7f4e487b7100000000000000000000000000000000000000000000000000000000600052601260045260246000fd5b6000611c49826116eb565b9150611c54836116eb565b925082611c6457611c63611c0f565b5b828204905092915050565b6000611c7a826116eb565b9150611c85836116eb565b925082821015611c9857611c976119ed565b5b828203905092915050565b600081519050611cb281611692565b92915050565b600060208284031215611cce57611ccd61168d565b5b6000611cdc84828501611ca3565b91505092915050565b6000606082019050611cfa600083018661162d565b611d07602083018561174e565b611d146040830184611663565b949350505050565b7f4d61726b6574206973206e6f74206f70656e0000000000000000000000000000600082015250565b6000611d526012836118de565b9150611d5d82611d1c565b602082019050919050565b60006020820190508181036000830152611d8181611d45565b9050919050565b7f4f6e6c7920746865206269646465722063616e20706c6163652074686520626960008201527f6400000000000000000000000000000000000000000000000000000000000000602082015250565b6000611de46021836118de565b9150611def82611d88565b604082019050919050565b60006020820190508181036000830152611e1381611dd7565b9050919050565b7f41676772656761746f72206e6f7420666f756e6420666f72206261747465727960008201527f206f776e65720000000000000000000000000000000000000000000000000000602082015250565b6000611e766026836118de565b9150611e8182611e1a565b604082019050919050565b60006020820190508181036000830152611ea581611e69565b9050919050565b7f416d6f756e7420706c616365642065786365656473206261747465727920636160008201527f706163697479206f7220536f4300000000000000000000000000000000000000602082015250565b6000611f08602d836118de565b9150611f1382611eac565b604082019050919050565b60006020820190508181036000830152611f3781611efb565b9050919050565b7f426174746572792069732066756c6c0000000000000000000000000000000000600082015250565b6000611f74600f836118de565b9150611f7f82611f3e565b602082019050919050565b60006020820190508181036000830152611fa381611f67565b9050919050565b7f5072696365206d7573742062652067726561746572207468616e203000000000600082015250565b6000611fe0601c836118de565b9150611feb82611faa565b602082019050919050565b6000602082019050818103600083015261200f81611fd3565b9050919050565b600060608201905061202b600083018661162d565b612038602083018561174e565b612045604083018461174e565b949350505050565b6000612058826116eb565b91507fffffffffffffffffffffffffffffffffffffffffffffffffffffffffffffffff82141561208b5761208a6119ed565b5b600182019050919050565b7f4d61726b657420697320616c726561647920636c6f7365640000000000000000600082015250565b60006120cc6018836118de565b91506120d782612096565b602082019050919050565b600060208201905081810360008301526120fb816120bf565b9050919050565b6000604082019050612117600083018561174e565b6121246020830184611663565b9392505050565b600081519050919050565b60005b83811015612154578082015181840152602081019050612139565b83811115612163576000848401525b50505050565b6000601f19601f8301169050919050565b60006121858261212b565b61218f81856118de565b935061219f818560208601612136565b6121a881612169565b840191505092915050565b600060208201905081810360008301526121cd818461217a565b905092915050565b7f4e487b7100000000000000000000000000000000000000000000000000000000600052605160045260246000fdfe456e657267792073656c6563746564206578636565647320726571756972656420656e65726779a2646970667358221220c5a0e0cf6ce3a7c130a1a48508296c8298263039950cd6ef37530f2c331445d464736f6c63430008090033",
  "linkReferences": {},
  "deployedLinkReferences": {}
}